:020000040800F2
:100000000004002001020008412E0008412E0008D3
:10001000412E0008412E0008412E0008412E000804
:10002000412E0008412E0008412E000891250008AD
:10003000412E0008412E0008412E0008412E0008E4
:10004000412E000801270008D10A0008A10A000873
:10005000412E0008412E0008E1280008B1280008C0
:10006000812800085128000821280008212B0008B9
:10007000F12A0008C12A0008912A0008612A000814
:10008000312A0008012A0008412E0008412E0008EC
:10009000412E0008412E0008412E0008B12700081B
:1000A000412E0008412E0008412E0008412E000874
:1000B000311D0008412E0008412E0008412E000885
:1000C000412E0008412E0008412E0008412E000854
:1000D000412E0008D11D0008412E0008412E0008C5
:1000E00031270008D1260008010B0008412E000826
:1000F000412E0008412E0008412E0008412E000824
:10010000412E0008412E0008412E0008412E000813
:10011000412E0008412E0008412E0008412E000803
:10012000D1290008A12900087129000841290008E7
:1001300011290008412E0008412E0008412E000818
:10014000410A0008D1090008A1090008412E000851
:10015000412E0008412E0008412E0008412E0008C3
:10016000412E0008412E0008412E0008412E0008B3
:10017000412E0008412E0008412E0008412E0008A3
:10018000412E0008412E0008412E0008412E000893
:10019000412E0008412E0008412E0008412E000883
:1001A000000000000000000000000000000000004F
:1001B000000000000000000000000000000000003F
:1001C000000000000000000000000000000000002F
:1001D000000000000000000000000000000000001F
:1001E000000000000000000000000000000000000F
:1001F00000000000000000000000000000000000FF
:1002000072B6264880F30988022080F31488BFF371
:100210006F8F01F05DFD01F0BBFC21482149224AAE
:1002200091423CBF41F8040BFFF7FABF1F491B4A3C
:1002300091423CBF41F8040BFFF7FABF1C491D4A2D
:100240001D4B9A423EBF51F8040B42F8040BFFF7D6
:10025000F8BF002019491A4A91423CBF41F8040BEB
:10026000FFF7FABF01F0F4FC01F02AFD154C164D22
:10027000AC4280F2058054F8041B8847FFF7F8BFB2
:1002800001F02EF9114C124DAC4280F2058054F869
:10029000041B8847FFF7F8BF01F00ABD00080020E3
:1002A0005555555500000020000400200004002092
:1002B000B0330008000800202C080020300800207F
:1002C000500C002000020008000200080002000894
:1002D0000002000800000000000000000000000014
:1002E0002DE9F04FC1F80CD0D0F80CD0BDE8F08F5C
:1002F000002383F311882846A047002001F098FCD2
:1003000001F09EFC00DFFEE700000000000000009E
:1003100040EA010C1CF0070F23D1BDF1100DCDE90F
:100320000245CDE900676FF000064FF0000700BFFF
:10033000F0E80223F1E80245A24282FA46FCA7FA5D
:1003400086FC08BFBCF1000F40F0D780AB4283FAB7
:1003500046FCA7FA86FC08BFBCF1000F40F0CA803B
:10036000E6E710F0030C21D020F0030050F8042B36
:100370005FEACC7C08D00FD211F801CB5FFA92F380
:10038000B3EB0C0C10D17BB111F801CB5FFAA2F3E7
:10039000B3EB0C0C08D13BB111F801CB5FFAB2F30F
:1003A000B3EB0C0C00D10BB960467047BDF1100DDA
:1003B000CDE90245CDE900676FF000064FF0000778
:1003C00011F0030C2DD110F0040F0DD050F8042BB8
:1003D00051F8044BA24282FA46FCA7FA86FC08BFF9
:1003E000BCF1000F40F0898011F0040F9FD051F84C
:1003F000045B00BFF0E80223AA4282FA46FCA7FA97
:1004000086FC08BFBCF1000F71D1F1E80245A342A0
:1004100083FA46FCA7FA86FC08BFBCF1000F63D143
:10042000E8E721F00301BCF1020F1ED03BDA51F8DE
:10043000045B00BF50F8043B4FEA152583FA46FCE5
:10044000A7FA86FCB7EB0C2F03EA162208BFAA42D4
:100450004DD151F8045BBCF1000F82EA03034FEA6F
:10046000056208BF93423CD1E4E751F8045B00BF4A
:1004700050F8043B4FEA154583FA46FCA7FA86FC80
:10048000B7EB0C4F03EA164208BFAA422FD151F82E
:10049000045BBCF1000F82EA03034FEA054208BF88
:1004A00093421ED1E4E751F8045B00BF50F8043BCF
:1004B0004FEA156583FA46FCA7FA86FCB7EB0C6F8A
:1004C00003EA166208BFAA4211D151F8045BBCF1DD
:1004D000000F82EA03034FEA052208BF934200D1CE
:1004E000E4E719BA12BA0AE019BA22BA07E011BA57
:1004F0002ABA04E019BA2ABA01E011BA22BA9CFA5F
:100500008CF0DDE90067DDE902451DF1100D38B121
:10051000B0FA80F0C0F1180021FA00F122FA00F2DE
:100520000120914298BF8041704700BF0000000049
:10053000F0B400F10B0700F10A050C46B1FBF2F62E
:1005400002FB161101F13003392BC8BF01F137034B
:10055000DBB2B4FBF2F431462E4605F80139002C2B
:10056000ECD1B91B3246014401E012F8013F00F81A
:10057000013B8842F9D1F0BC704700BFAFF3008067
:10058000024B1A6842F080021A607047003801403E
:10059000F0B54B1C87B0864644D03C4D3C4AAB6915
:1005A00005932E46012956F81C3F4FF0804798BF0F
:1005B0000221B342786A049254D0AA6A9C6801442A
:1005C0008A1AA24238BF7963A24204D91B68121B5F
:1005D0009C689442FAD35968029101AC01930C6073
:1005E0005C60039299684FF0FF308A1A9A606862E3
:1005F000704602F0F5FA049B83B1EB69234AA342EB
:1006000017D0029A019B1360019B0021B3425A60EC
:10061000049103D09968039A0A449A60AB69186AF6
:1006200007B0F0BD194D02F0DBFAAB69186A07B0EC
:10063000F0BD019BD3610021B3425E60049121D0E3
:100640009968039C906A62184FF080419A604B6AE7
:10065000181A8242E2D9121A012A98BF02221344C0
:100660004B63DBE701AC01EB000C00220223A86224
:10067000019602960391EC612C62C7F834C03A618E
:10068000FB60B5E74FF08043D960C7E7380800202A
:10069000F1250008AFF30080AFF30080AFF30080D6
:1006A00010B4024659B1084B44689B69042083E8A2
:1006B0001400236053605DF8044BFFF769BF4FF0EF
:1006C000FF305DF8044B704738080020AFF300801E
:1006D00070B520230E46044683F31188C3692BB1FD
:1006E000984703E0FFF7DCFF002816DBA5682046EB
:1006F0003146002DF6D0A269A0682169531C8B42B7
:1007000000F1FF30A361A06028BFE368107828BF24
:10071000A361002383F3118870BD85F3118870BD38
:100720000C30FFF7D5BF00BFAFF30080AFF3008000
:100730000C304FF0FF31FFF7CBBF00BFAFF30080AD
:100740002DE9F84F04461D46D0F81C804FF0200BD1
:100750008BF31188002601EB020A01F10109B8F1BF
:10076000000F05D02046C04702E0FFF799FFF8B917
:10077000A76820462946002FF7D0A369A1685A1C14
:100780000139A261A1601B7809F8013C2369A269C3
:100790009A4224BFE368A361002383F31188D14503
:1007A00006F1010606D08BF3118809F10109D6E79D
:1007B00087F311883046BDE8F88F00BFAFF30080A3
:1007C0000C30FFF7BDBF00BFAFF30080AFF3008078
:1007D0000C304FF0FF33FFF7B3BF00BFAFF3008023
:1007E000F8B504460F461646202383F3118803E02C
:1007F000FFF756FF002819DBA56820463146002D7B
:10080000F6D06369A1685A1C01396261A1601F704A
:10081000236962699A4224BFE3686361E3690BB1AB
:1008200020469847002080F31188F8BD85F3118891
:10083000F8BD00BFAFF30080AFF30080AFF30080DE
:100840003030FFF7CDBF00BFAFF30080AFF30080C3
:1008500030304FF0FF32FFF7C3BF00BFAFF300806F
:100860002DE9F04F83B004460D4616460193D0F8AB
:100870001C804FF0200A8AF311880027B946A3682C
:1008800005F1010B204603B36369A1684A1E591C98
:100890006161A2602978197023696169994224BF56
:1008A000E3686361B8F1000F00D0C04789F3118895
:1008B000013E07F1010712D08AF31188A3685D4653
:1008C00005F1010B2046002BDED120460199009353
:1008D000FFF7E6FE009B0028D1D083F3118838464D
:1008E00003B0BDE8F08F00BFAFF30080AFF300802E
:1008F0003030FFF7B5BF00BFAFF30080AFF300802B
:1009000030304FF0FF33FFF7ABBF00BFAFF30080D5
:100910000B072DE9F041044635D4426A036A566854
:100920004168D6F800805D68D2F800C01F68096889
:1009300028F00F08C6F80080167C0F2202FA06F68F
:10094000CCF804602E6826F00F062E601B7C9A40BF
:100950007A60A9B10423037088472378042B0FD051
:10096000202383F31188A3682BB10022A2601846CC
:100970001A6202F05DF9002383F31188BDE8F0816B
:1009800002232370ECE772B6014B024ADA62FEE7FB
:1009900038080020F02E0008AFF30080AFF300808D
:1009A00008B5094B596B1A680A4002F002025A63F3
:1009B0002AB1064843682121D3F80C319847BDE895
:1009C000084001F055BE00BF00040140D80A0020D5
:1009D000164B5A6919680A4010B502F040445C6130
:1009E000530013D4002C19DB104B596B1A6A0A40C0
:1009F00002F001025A632AB10D4843682021D3F85E
:100A000004319847BDE8104001F032BE0848436801
:100A10001E21D3F8F4309847002CE5DA04484368E7
:100A20001F21D3F8FC309847DEE700BF00040140E7
:100A3000D80A0020AFF30080AFF30080AFF300804E
:100A4000124B134A596910B51C680C402240A10290
:100A50005A6114D462020BD4A30005D50D48436833
:100A60001D21D3F8EC309847BDE8104001F000BEDE
:100A7000084843681621D3F8B4309847ECE7054896
:100A800043681521D3F8AC309847E3E700040140F0
:100A900000006020D80A0020AFF30080AFF3008090
:100AA00008B5094B59691A680A4002F480125A6164
:100AB0002AB1064843681421D3F8A4309847BDE80A
:100AC000084001F0D5BD00BF00040140D80A002055
:100AD00008B5094B59691A680A4002F400225A61A4
:100AE0002AB1064843681321D3F89C309847BDE8E3
:100AF000084001F0BDBD00BF00040140D80A00203D
:100B000008B5094B59691A680A4002F480225A61F3
:100B10002AB1064843681221D3F894309847BDE8BB
:100B2000084001F0A5BD00BF00040140D80A002024
:100B300008B50146202383F311880820FFF728FD1C
:100B4000002383F3118808BDAFF30080AFF300806A
:100B5000DFF858C0F0B4DCF818708568BC68002372
:100B6000A542064603620CD8037763461B689A6861
:100B70009542FBD95A687260336016605E60F0BCC3
:100B800070473B7763461B689A689442FBD95A6862
:100B90007A6001243B6017605F60347739463046E5
:100BA000CCF81860F0BCFFF79BBB00BF38080020F2
:100BB000014B5B6883607047001000E0AFF300807A
:100BC000F0B4294D447C2B68012606FA04F71F4235
:100BD00047D1264E06EBC40746F834107A605A0611
:100BE00004D1234A546944F00104546113F4786F2A
:100BF00004D11F4A546944F0020454614268846875
:100C00001668076826F00F061660067C4FF00F0C7A
:100C10000CFA06FC23424FF00006C7F804C0166029
:100C200016D1A9B1847C6209920004F1604102F1FD
:100C3000604202F5614201F5614104F01F040127A1
:100C400007FA04F4A02681F80063C2F8804114601A
:100C5000427C012101FA02F213432B600020F0BC18
:100C600070473046F0BC7047000B0020740A00202B
:100C700000100240AFF30080AFF30080AFF30080BC
:100C8000202383F31188064B5B681A895B68012176
:100C900001FA02F292B25A83002383F3118870475B
:100CA00088090020AFF30080AFF30080AFF300802D
:100CB000202383F31188064B5B681A895B68012146
:100CC00001FA02F292B21A83002383F3118870476B
:100CD00088090020AFF30080AFF30080AFF30080FD
:100CE000F8B5202383F31188114B1C6A5A6A9E6A57
:100CF000DD6A64685268E1600327012146F08006DE
:100D000045F0800561601F702660D06051601560FD
:100D1000216841F001012160116841F0010103F1F6
:100D20000800116001F074FF002383F31188F8BDFF
:100D300088090020AFF30080AFF30080AFF300809C
:100D4000F8B5202383F31188104B114C196A5A6AA5
:100D5000DD6A496852689E6ACC600327012445F029
:100D600080054C601F700E60D0605460156008688C
:100D7000204308601168214303F10800116001F06D
:100D800047FF002383F31188F8BD00BF88090020C6
:100D900030080020AFF30080AFF30080AFF3008095
:100DA000F8B5202383F31188114B124DDC6A03F14F
:100DB000200146C949685268C8600327012046F0EF
:100DC000800648601F700E60D5605060146008682F
:100DD00040F001000860116841F0010103F10800D2
:100DE000116001F015FF002383F31188F8BD00BFE7
:100DF00088090020E02E0008AFF30080AFF30080E8
:100E000038B504460D4690B1286020460B4902F0E3
:100E100047F804442046094902F01AF860B1421C20
:100E200000232A600370237823B1204638BD0C6864
:100E3000002CEAD1002038BD2860F4E7FC2E000821
:100E40000EB42DE9F04F88B011AD05AB0DF1150CC6
:100E5000019355F8044B0495C3EB0C03CDF800C087
:100E6000834603934FF000082178631C69B125295C
:100E700011D0DBF800201C46926858469047217834
:100E800008F10108631C0029F1D1404608B0BDE813
:100E9000F04F03B0704762782D2A03BFA278A31CDD
:100EA0004FF0010A4FF0000A302A03BF5A7801338D
:100EB000302620261C46002706E02B78043507EB59
:100EC0008707227803EB4707A2F13003DBB2092B37
:100ED00004F10104F3D92A2AEFD02E2A4FF00001A1
:100EE0002BD002F0DF034C2B34D0A2F14403342B7F
:100EF00000F2B680DFE803F0ACB4B4B4B4ACB4B480
:100F0000B4B4B4AAB4B4B4B4B434B4B47DB4B4B462
:100F1000B4B4B4B4B4B4B49FACB4B4B4B4ACB4B4B6
:100F2000B4B4B4AAB4B4B47FB434B4B47D002B78F0
:100F3000043501EB810103EB410114F8012BA2F10F
:100F40003003DBB2092BF4D92A2AF0D002F0DF03F8
:100F50004C2BCAD12378002BC7D001341A46C4E7E2
:100F60000A22296805A80435FFF7E2FA019BC01A96
:100F700000F1FF3CCDF808C00DF114093F1A27EA33
:100F8000E777BAF1000F12D17F4287B199F80010CC
:100F90002D296DD0BA46DBF8003058469B683146A3
:100FA00098471AF1010AF6D1C7EB08085746029A8A
:100FB000002A0FDB09F1FF3A9144DBF800301AF800
:100FC000011F9B6858469847CA45F6D1029B08F115
:100FD00001089844002F3FF447AFB946DBF80030D2
:100FE00058469B6831469847B9F10109F6D1B84493
:100FF0003AE71022B5E7D5F80090304BB9F1000F71
:1010000008BF994647F6FF7399F800000435002998
:1010100008BF194600284CD049444B4601E08B429A
:1010200038D05A780133002AF9D1C9EB0300431EA6
:1010300002932026A2E703982B688DF81430421EF5
:101040000435029220260DF1140997E7082288E75B
:101050002968002905F1040524DB05A80A2283E795
:1010600003988DF81420421E02920DF1140985E7B1
:10107000302E8FD1DBF8003058469B689847DDF85A
:1010800008C00CF1FF3C09F1010908F10108CDF895
:1010900008C07FE7C9EB010000F1FF3CCDF808C0B4
:1010A00020266BE72D2349428DF814300DF11500F1
:1010B000D4E74FF0FF33029320265FE7002F0008AC
:1010C000F8B50F1E06460ADD151F00240134304610
:1010D000034955F8042FFFF7B3FEBC42F6D1F8BD23
:1010E000082F0008AFF30080AFF30080AFF300805B
:1010F000002903DD0749084AFFF7A2BE202383F336
:1011000011884FF080420023526A83F3118803490B
:10111000FFF796BE102F00081C2F0008242F000890
:1011200010B5002982B0044606DD1949194A02B0FB
:10113000BDE81040FFF784BE1749184AFFF780FE4C
:1011400020461749174AFFF77BFE20461649174AE3
:10115000FFF776FE20461649164AFFF771FE204635
:101160001549164AFFF76CFE20461549154AFFF748
:1011700067FE20461449154AFFF762FE144B0093A0
:1011800020461449144A154BFFF75AFE02B010BD11
:10119000102F00082C2F0008342F0008482F0008BB
:1011A000502F0008642F0008AC2F0008C02F000843
:1011B000CC2F0008E02F0008EC2F000800300008BA
:1011C000183000082C300008483000085C30000857
:1011D000AC300008843000089C300008A8300008BB
:1011E0002DE9F00F002302F00307C2F38006C2F3DB
:1011F000C105C2F341144FF00F09C2F3C3124FF0FF
:10120000010A38E0D0F820B02BEA0C0C4CEA0808B0
:10121000C0F82080D0F804C00AFA03F82CEA080CC1
:101220004CEA060CC0F804C04FF0030B4FEA430C25
:10123000D0F808800BFA0CFC6FEA0C0C0CEA0808DA
:1012400048EA0508C0F80880D0F80C800CEA0808C5
:1012500048EA0408C0F80C80D0F800800CEA080CBA
:101260004CEA070CC0F800C049081AD07600AD005F
:10127000A400BF00013303F0070C4FEA8C0C11F0FF
:10128000010F02FA0CF809FA0CFCEDD0072BB9D9C2
:10129000D0F824B02BEA0C0C4CEA0808C0F82480E3
:1012A000B8E7BDE8F00F7047AFF30080AFF3008000
:1012B0002DE9F047794B04689B69794AD0F804809E
:1012C00078499A6198B02046FFF7BAFD08AE0DF153
:1012D0005F0720467449FFF7B3FD35462368204673
:1012E0005B680DF107010122984768B39DF807106C
:1012F000042925D0082910D07F290ED00D2934D0FB
:101300001F29EBD9BD42E9D2236820469B68984744
:101310009DF807302B700135E0E7B5422046DDD05F
:1013200023689B689847236820469B68202198473C
:1013300023689DF807109B682046013D9847CDE73C
:1013400020465A49FFF77CFD20465949FFF778FDB2
:10135000202383F311880021564801F081FC0020EE
:1013600001F04EFD18B0BDE8F08753492046FFF765
:1013700067FD002302A92B7030461D46FFF740FD94
:1013800002A9824600200DF10809FFF739FD50B18E
:10139000042D1DD049F8040F02A900200135FFF7E4
:1013A0002FFD0028F4D118AA02EB850343F8540C52
:1013B000BAF1000F8DD050464049FEF7A9FF70B931
:1013C000002DC5D020463E493C4AFFF739FD80E755
:1013D00020463C49FFF734FD0023079379E7504648
:1013E0003949FEF795FF30B92046CDB13449364A28
:1013F000FFF726FD6DE7354B1868994620B932E0B6
:1014000059F8080F00282ED05146FEF781FF00281A
:10141000F6D1D9F804302946204603AA984758E760
:101420002B49FFF70DFD294B1A681D463AB120469E
:101430002849FFF705FD55F8082F002AF7D1B8F124
:10144000000F0BD0D8F8002042B145462046214974
:10145000FFF7F6FC55F8082F002AF7D12046164969
:10146000FFF7EEFC35E7B8F1000F0DD0D8F800001B
:1014700050B1C14602E059F8080F28B15146FEF7B5
:1014800047FF0028F7D1C4E7524620461249FFF72C
:10149000D7FC20461149FFF7D3FC1AE73808002093
:1014A0007032000878320008903200089832000844
:1014B000EC320008D40A002058300008B43200088A
:1014C000102F00089C320008BC32000804080020DD
:1014D000C4320008DC320008E0320008E4320008C0
:1014E000C14BC2489A6A4FF0FF3100222DE9804873
:1014F00099629A621C6919611A61DC68D960DA60C4
:10150000D96941F08051D961016841F4807101606D
:10151000196A01F44071B1F5007F87B003D04FF430
:10152000803119621A62B04B1A6A120407D41A6A1F
:1015300042F400721A621A6A42F400421A62AC4A19
:10154000AC4CAD480023136019461A46A518143256
:101550006E68F02A31604FF00005C15003F10803B6
:10156000F4D1A64FA64CDFF88082A649DFF8E8B296
:10157000DFF8E8C2DFF8E892DFF8E8A2A24EA34A5B
:10158000A34BA4484FF0FF3EC7F804E0C4F804E0C2
:10159000D8F81870A04C47F00107C8F818700F6809
:1015A00047F020070F60D8F8141041F4FC01C8F888
:1015B00014104FF0904137464D60C1F808B0C1F8A3
:1015C0000CC04FF6FF7CC1F814C00C624FF46E24BF
:1015D0004C62924C0C60C0244FF2C001C9F8044028
:1015E000C9F808108E49C9F80C104AF2800B4FF068
:1015F0008841C9F814C0C9F82010C9F82450C9F8A6
:1016000000B0DFF86492CAF804504FF07041CAF895
:101610000810CAF80C904FF05531A9F18869CAF842
:1016200014C0DFF848B2CAF82050A9F14009CAF83E
:101630002450CAF8005055609560D160A1F5AA41C8
:10164000C2F814C04FF0FF0A1562153955621560D3
:101650005D600F22C3F808B0C3F80C90DFF810B239
:10166000DFF81092C3F814A01D625D621960456036
:101670008260C0F80CB0C0F814C005624562056015
:1016800047F8049B6749DFF8F0A1776006F1540939
:1016900006F10C0C012706F1640006F1300BC6F8C8
:1016A0000CC0C6F810C0C6F818904FF0100CC6F861
:1016B0002490C6F820904FF020097561F061C6F8BB
:1016C00038C0C6F830B0C6F834B08AF80070CAF82E
:1016D0000450B562F6623772F06381F82543C1F8B1
:1016E0008491C1F80490D8F81CB0B064706406F11D
:1016F000740030644C48F0644C484D4ADFF87CA1DB
:1017000070674C48B0674C484C4BD0610AF11400EC
:1017100050624B48C2F820A0D8610AF178000AF163
:101720008C0A484C1862C3F824A002F10C0003F1A3
:101730000C0A4BEA070BD0601061C3F80CA041F211
:101740000A00C3F810A041F2180A17701F70556004
:10175000956055615D609D605D6190629862C2F8C0
:101760002CA0C3F82CA03665C8F81CB0D4F808B07B
:10177000DFF80CA1344B3548354A4BEA070BC4F867
:1017800008B04FF0804441F61F4BC4F828B0C4F8AD
:101790002CE04FF0800BA5616563E56065606761D3
:1017A00027604FF0805481F81CB3C1F880410C6071
:1017B000CAF80850DAF80CB0264C4FF6FF010BEAD5
:1017C00001010B43CAF80C30C368C4F824E043F0AD
:1017D0008073C360136864603B43136004F11C01B1
:1017E000002200234EE000BF0010024000700040C5
:1017F000000B002080310008740A00200000024025
:101800000004024000000140BC090020000C004818
:1018100000100048001400480000505500A8802A1D
:101820001505555500E100E081050008003801402C
:10183000880900200051250200300140380A0020AC
:10184000003C0040002004E00003FA05F0ED00E059
:10185000001000E03808002000FCC03C5411156462
:10186000000400480008004855555505C000FFFF1A
:1018700050555555C0300008D80A00209431000852
:1018800000ED00E068468AF81FC0A5608AF8229043
:10189000CDF800E0E1612162246124606461A56209
:1018A00025670195CDE9042302950395FFF780F99B
:1018B000684601F04DF9A04BA04ADFF8B8B2616963
:1018C000DFF8B4A2DFF8B4E2616403F1100022F0A3
:1018D000070C029A2267186104F1300258612BF05C
:1018E000070B4020A063A06684F84D50656625660E
:1018F00084F84E70A56424649D61CAF800B00A6142
:1019000004F1540A04F158018D48CEF800C09D60DE
:10191000DD606261A26184F84C70C4F854A0186064
:10192000A165E1654FF0020E85F3118862B6A369E7
:10193000844A9A6189F3118862698349DFF840A279
:10194000C4F82C1104F1780304F59670C4F88400EF
:10195000C4F88C20C4F83051C4F8807084F894E046
:1019600084F89550C4F8B070C4F8AC50C4F8A850CE
:1019700084F89670C4F89050C4F88840C4F84CA11C
:1019800004F19C01136104F1A0021846C4F89C10F4
:10199000C4F8A020C4F8A4206361FFF7D9F885F348
:1019A00011886A4BC4F8903089F31188337ABB42AE
:1019B00005D1D8F8183043F48043C8F81830B26F16
:1019C0006349736FA1FB0202100B44F2400101272F
:1019D00040F22D124FF0FF3B4FF00208D860002577
:1019E00059609F601A60C3F820B086F8088085F3BC
:1019F00011885848102140F28232FFF7F1FB554818
:101A0000202140F28232FFF7EBFB4FF09040202183
:101A100040F28222FFF7E4FB4FF09040402140F279
:101A20008222FFF7DDFB4FF09040802140F28222BE
:101A3000FFF7D6FB3A464FF090404FF48071FFF726
:101A4000CFFB3A4644480821FFF7CAFB4FF09043CA
:101A50004FF480721A833F4820220821FFF7C0FB11
:101A60003E493F48FFF7ECF93E4B4FF020091B6021
:101A700089F311881968A26900910DEB050102979D
:101A80000395CDF810B01960019285F3118800F02C
:101A900047FC354B186089F31188344B6269344830
:101AA000C3F8240141215A61C3F844A1C3F8285165
:101AB00083F81C805D775D631D639F779D611C616A
:101AC00003F5927E996303F12406136103F1280262
:101AD0001846C3F80CE099605E629A62DA6263614C
:101AE000FFF736F885F31188DFF89880A56989F348
:101AF00011882B6B33B94FF0FF332B620A2001F0B2
:101B00006FF82B6B5E421E4023EA06032B63002511
:101B100085F311881EB9E9E70135002EE6D026FAD3
:101B200005F3DB07F8D507FA05F258F82530284603
:101B300026EA02069847EFE7E00A002000A000200E
:101B4000B12500082033000861260008F83200089B
:101B5000B5814E1B00080048001000480033000803
:101B6000BC090020D40A00206C0A0020080B0020C9
:101B7000011D0008570C002034080020700A0020C6
:101B8000F102000800080020AFF30080AFF30080EE
:101B900024490B6843F001030B600B68214A980746
:101BA000FBD5536823F00303536053685360114619
:101BB0004B681C4A13F00C03FAD1116801F0F901CB
:101BC00011605360136843F4A02313601368154930
:101BD0009B03FBD54B6A43F001034B624B6A114AEE
:101BE0009807FBD5104B53604FF404513023D1625A
:101BF0001363136843F080731360136809499B01F2
:101C0000FBD50A4B12221A604B6843F002034B606B
:101C10004B68044A03F00C03082BF9D1136B1363D0
:101C2000704700BF0010024000241D000020024049
:101C3000202383F3118801F0E3B800BFAFF30080E5
:101C400000F0AEBFAFF30080AFF30080AFF30080D1
:101C5000F0B4134E002506F17007A6F110011AC961
:101C6000A3420DD204391A4651F8040F42F8040B6E
:101C7000A242F9D3DA43144424F003040434234485
:101C800056F8042C934203D243F8045B9342FBD3EF
:101C9000BE4206F1100301D21E46DEE7F0BC7047DB
:101CA000F0300008AFF30080AFF30080AFF30080A6
:101CB000FEE700BFAFF30080AFF30080AFF300801A
:101CC000704700BFAFF30080AFF30080AFF3008038
:101CD000704700BFAFF30080AFF30080AFF3008028
:101CE0000B0700D4704772B6014B024ADA62FEE776
:101CF00038080020F02E0008AFF30080AFF300801A
:101D000008B54FF40075064C2E46268341F2883004
:101D1000FEF70EFF658341F28830FEF709FFF4E716
:101D200000100048AFF30080AFF30080AFF30080F5
:101D30002DE9F0414FF080452B699B0703D4BDE8A6
:101D4000F04100F095BC00272F61202686F3118812
:101D50001D4C6A6AE369A06A9968C0EB020C8C4565
:101D600038BF04F11C071DD3B84604F11C071A68DC
:101D7000D3F80CC00144BA42A1625760E261C3F8D3
:101D80000C8008BFC5F80C8088F311881869E047FB
:101D900086F31188E3696A6AA06A9968C0EB020C4D
:101DA0006145E4D9BB4208D00144891A012998BF92
:101DB00002214FF080430A445A63002383F31188C1
:101DC000BDE8F04100F054BC38080020AFF30080BB
:101DD0002DE9F041634D6E6F3768F4693462220774
:101DE00054D1E30546D4A00618D4390601D52206FD
:101DF00067D463060ED5202383F311886A6CAB6C1D
:101E000058489A4200F0898027F040073760002345
:101E100083F31188BDE8F04100F02ABC202383F34E
:101E20001188B28C6B695FFA82F8002B7ED02B6A26
:101E30006A6A4C4893427ED068694A4A591C01300C
:101E40002962686183F80080296AEB69994261D24E
:101E50004449EB6801F10C02934207D01868C8604E
:101E6000002142601846196200F0E2FE002383F36D
:101E70001188BAE7202383F311883B484FF400719F
:101E800000F0EEFE002383F31188ACE714F0080F96
:101E900014BF80210021E30748BF41F02001A007C3
:101EA00048BF41F04001620748BF41F480712023E0
:101EB00083F311882C4800F0D3FE002383F31188AC
:101EC0008FE7202383F31188AB6C6A6C25489A4214
:101ED0003AD0AA6B2348511CA963296C5A1CAA64E6
:101EE0008A4293F8008001D3C36B83641D492B6B36
:101EF00001F13002934207D0186808630021426064
:101F00001846196200F094FEA6F82880002383F397
:101F100011886EE7936913629AE7836B002B3FF495
:101F200073AF0430102100F09BFE6DE70E480421D2
:101F300000F096FE7BE74269002A3FF47DAF043053
:101F4000802100F08DFE91E7826B002AC1D0043021
:101F5000082100F085FE27F0C00343F04003336002
:101F6000D4E700BFBC090020C0090020AFF3008007
:101F70002DE9F04F8BB000AF1168F860C2481446ED
:101F8000FEF7C6F9002840F0768164682378002BBC
:101F900000F0A8810146013189B2635C002BFAD1BF
:101FA000CA1D22F00702C7F800D0ADEB020D6D4646
:101FB000002900F09981E25CEA540133DBB28B42E4
:101FC000F9D3CBB203F104095FFA89F909F10702E9
:101FD00002F4FC72ADEB020D102400200A22B9F1CC
:101FE000040F8DF803308DF800408DF801008DF856
:101FF0000220C7F808D0C8BF042307DDEA18B86874
:1020000012F8042CC25401334B45F7DB0846A9F102
:10201000040902469D49F868BB68FEF711FF2024B9
:1020200084F311889A4D284600F082FE002383F342
:10203000118884F3118815F80C3C964845F8080C73
:10204000A5F10C04012B00F02D818289A16A02F414
:102050007063B3F5E06FE36A21F4706123F4706399
:1020600040F20D8141F4A06543F4A0610223A56212
:10207000E16223634189E36941F0040142F4805243
:1020800089B242F0070200251D6019605A60196884
:10209000022241F040011960227085F31188FEF799
:1020A000EFFDA94540F31781B9F1100FAB4607F1D9
:1020B000130607F1140407F127054FF0100847DD58
:1020C0006FF00102FA74A9F1100987F814800BE08F
:1020D000FEF72EFDFEF7ECFD0120FEF729FDFEF7D1
:1020E000CFFDFB7CFE2B0BD107F11200314687F8A8
:1020F0001280FEF7F5FDFB7CFE2B4FF00100E7D1CF
:10210000B86800230A2190227B75B975FA75584486
:10211000C118E218013309791171102BF8D10BF1B4
:10212000100BA2461AF8012FBA7407F11200FEF73D
:1021300007FEAA45F6D10120FEF7FAFCFEF7B8FD2E
:102140001E20FEF7F5FCFEF79BFDB9F1100FB7DC82
:1021500009F10B0323F00703C7F804D0ADEB030D1F
:102160004FF0100AFE23E8468DF800A03B750BE007
:10217000FEF7DEFCFEF79CFD0120FEF7D9FCFEF722
:102180007FFD3B7DFE2B0AD13046214687F813A008
:10219000FEF7A6FD3B7DFE2B4FF00100E8D109EBD9
:1021A0000B0E00230A22F34588F8039088F80130CB
:1021B00088F802200BDAB868CBEB0E0E5844C11831
:1021C00008EB03020133097911717345F7D109F165
:1021D00003094FF0010A18F8013FFB740AF1010AE4
:1021E0003046FEF7ADFDCA45F5DD7B689D46FEF73E
:1021F0005FFD1E20FEF79CFCFEF742FD2046FEF729
:10220000CFFD3B7D102B05D0202B03D0402B01D0E0
:10221000802BF3D107F11500FEF7C2FD07F1160080
:10222000FEF7BEFD3046FEF7BBFDFB7CBB7600240F
:1022300043B107F118002044FEF7B2FDFB7C0134E6
:102240009C42F6DBFEF734FD114800F039FDF868DA
:102250001149FEF7F5FD07F1170414F8012F0F4996
:10226000F868FEF7EDFDAC42F7D1F8680C49FEF7CF
:10227000E7FD3D68AD462C37BD46BDE8F08F012532
:10228000A162E3622563F5E6503300085433000889
:10229000940900201C0800206433000870330008F3
:1022A000603300081849206A184D2246FEF788FC62
:1022B0001749606A2246FEF783FC216A626AAE69AA
:1022C000E3694968526860680C3346F48056AE6131
:1022D0008B609360B9E607F1130607F1140407F168
:1022E000270584E7C7F800D082B04FF0000910221C
:1022F0000A238DF800208DF80230C7F808D08DF839
:1023000001908DF8039084E6110900080010024046
:10231000E11C0008AFF30080AFF30080AFF3008052
:102320002DE9F843202383F311883E4800F000FD97
:10233000002383F311883C4A40F6C70003E0596844
:1023400081424CD81A461368002BF8D1354C2046F0
:1023500000F0B6FC54F8103C103C002B5ED04FF45B
:102360000D609847002859D040F6C80304604360C8
:1023700000F10804202383F311882C4B2C4A5E695A
:10238000C4F8A4280025012104F12802DFF8A8C020
:10239000DFF8A88023614FF0020E402004F6A40964
:1023A00004F12407A060C4F80C90A0636661C4F82F
:1023B000A888C4F8C4C884F81CE065632563A561D7
:1023C000A1772046346167626177A262E2625C6154
:1023D000FEF7BEFB85F311882046BDE8F883B1F512
:1023E0000D6F0DD2196811601C46124844F8080B95
:1023F000103000F065FC002CBCD12046BDE8F8830D
:102400001C68C3F8D04803F50D60A1F50D6140F6D6
:10241000C804C3F8D41810605C60E5E70020BDE88C
:10242000F88300BFF00A0020E80A002038080020E6
:10243000B1120008E00A0020F10200084033000851
:102440002DE9F8434A4D4B484B49FEF7F9FC2C68FF
:1024500014B1237F0F2B01D0BDE8F883202383F331
:102460001188237F0F2B07D0444B626A9B69092098
:102470001A60636200F0B4FB002383F3118820220A
:1024800082F31188A67F013EF6B2A67783F3118806
:1024900016B9237F0F2B0CD039493648FEF7D0FCF4
:1024A0004FF47A70FEF744FBFFF73AFF2860BDE86F
:1024B000F883637F03F00303012B0FD0022BEBD1D2
:1024C000616923690B612069E36B416182F31188C3
:1024D0001A6822601C6086F31188DDE76369216950
:1024E000196121694B6154F8083CA4F1080703F114
:1024F000080803F1100982F31188484600F018FC1F
:1025000086F311884346984504D09F4202D81B6841
:102510009845FAD11A681AB1974201D31346F2E7E7
:1025200054F8041C44F8082C1F6001F1080254F808
:10253000080CBE18864209D05A6802F108011944F5
:102540008F420CD0484600F0BBFBA5E77068BA5834
:1025500044F8082C0A18083244F8042CECE754F824
:10256000040C54F8081C1960024408325A60E9E768
:102570006C0A0020BC0900207433000838080020D1
:1025800084330008AFF30080AFF30080AFF3008026
:10259000EFF30983203383F30988002383F3118841
:1025A000704700BFAFF30080AFF30080AFF300804F
:1025B000202383F31188094A094913680968073001
:1025C00020F00700C91A88429BBFC0181060002085
:1025D0001846002383F31188704700BF3408002099
:1025E000700A0020AFF30080AFF30080AFF30080EB
:1025F00010B4202383F31188037F072B0ED8DFE864
:1026000003F0270D0D2308040D08036A9A680132B0
:102610009A6090E80C001A60026853604FF0FF3433
:10262000002281680D4B046202771B689A688A4217
:10263000FBD25A684260036000211060586081F349
:1026400011885DF8044B7047036A00221A60E5E7C1
:10265000002383F311885DF8044B7047380800208D
:10266000FEE700BFAFF30080AFF30080AFF3008060
:10267000202383F311880F4B5B6813F4006302D1AE
:1026800083F311887047EFF309834FF0807243F8AA
:10269000042CA3F1200282F30988074A1168926989
:1026A0008968926891428CBF044A054A43F8082C15
:1026B000704700BF00ED00E038080020010300086B
:1026C00004030008AFF30080AFF30080AFF3008095
:1026D00008B5094B59691A680A4002F400325A6178
:1026E0002AB1064843681121D3F88C309847BDE8D9
:1026F0000840FFF7BDBF00BF00040140D80A00201A
:1027000008B5094B59691A680A4002F480325A61C7
:102710002AB1064843681021D3F884309847BDE8B1
:102720000840FFF7A5BF00BF00040140D80A002001
:102730001D4B10B55A691C68144004F47C425A6160
:1027400062052AD4230522D4E0041AD4A10412D4A9
:1027500062040AD4230404D5144843680F21DB6FB4
:102760009847BDE81040FFF783BF104843680E212B
:102770005B6F9847EEE70D4843680D21DB6E984785
:10278000E6E70A4843680C215B6E9847DEE7074896
:1027900043680B21DB6D9847D6E7044843680A215C
:1027A0005B6D9847CEE700BF00040140D80A0020C7
:1027B000194B10B55A691C68144004F478725A61B8
:1027C000A30622D460061AD4210612D4E2050AD444
:1027D000A30504D5114843680921DB6C9847BDE87F
:1027E0001040FFF745BF0D48436808215B6C9847D0
:1027F000EEE70A4843680721DB6B9847E6E707489E
:10280000436806215B6B9847DEE70448436805216F
:10281000DB6A9847D6E700BF00040140D80A0020D1
:1028200008B5084B59691A680A4002F010025A614B
:1028300022B10548436804215B6A9847BDE8084017
:10284000FFF716BF00040140D80A0020AFF3008054
:1028500008B5084B59691A680A4002F008025A6123
:1028600022B1054843680321DB699847BDE8084069
:10287000FFF7FEBE00040140D80A0020AFF300803D
:1028800008B5084B59691A680A4002F004025A61F7
:1028900022B10548436802215B699847BDE80840BA
:1028A000FFF7E6BE00040140D80A0020AFF3008025
:1028B00008B5084B59691A680A4002F002025A61C9
:1028C00022B1054843680121DB689847BDE808400C
:1028D000FFF7CEBE00040140D80A0020AFF300800D
:1028E00008B5084B59691A680A4002F001025A619A
:1028F00022B10548436800215B689847BDE808405D
:10290000FFF7B6BE00040140D80A0020AFF30080F4
:10291000084B1968C1F3034110B531B10648826D07
:102920000C045C600AB1C06D9047BDE81040FFF731
:102930009FBE00BF00040240740A0020AFF3008075
:10294000084B1968C1F3033110B531B10648026D67
:102950000C035C600AB1406D9047BDE81040FFF782
:1029600087BE00BF00040240740A0020AFF300805D
:10297000084B1968C1F3032110B531B10648826CC8
:102980000C025C600AB1C06C9047BDE81040FFF7D4
:102990006FBE00BF00040240740A0020AFF3008045
:1029A000084B1968C1F3031110B531B10648026C28
:1029B0000C015C600AB1406C9047BDE81040FFF725
:1029C00057BE00BF00040240740A0020AFF300802D
:1029D00008B5074B196811F00F0105D0054A596079
:1029E000936B0BB1D06B9847BDE80840FFF740BE32
:1029F00000040240740A0020AFF30080AFF30080AF
:102A0000084B1968C1F3036110B531B10648026B78
:102A10000C065C600AB1406B9047BDE81040FFF7C0
:102A200027BE00BF00000240740A0020AFF3008000
:102A3000084B1968C1F3035110B531B10648826AD9
:102A40000C055C600AB1C06A9047BDE81040FFF712
:102A50000FBE00BF00000240740A0020AFF30080E8
:102A6000084B1968C1F3034110B531B10648026A39
:102A70000C045C600AB1406A9047BDE81040FFF763
:102A8000F7BD00BF00000240740A0020AFF30080D1
:102A9000084B1968C1F3033110B531B1064882699A
:102AA0000C035C600AB1C0699047BDE81040FFF7B5
:102AB000DFBD00BF00000240740A0020AFF30080B9
:102AC000084B1968C1F3032110B531B106480269FA
:102AD0000C025C600AB140699047BDE81040FFF706
:102AE000C7BD00BF00000240740A0020AFF30080A1
:102AF000084B1968C1F3031110B531B1064882685B
:102B00000C015C600AB1C0689047BDE81040FFF757
:102B1000AFBD00BF00000240740A0020AFF3008088
:102B200008B5074B196811F00F0105D0054A596027
:102B300013680BB150689847BDE80840FFF798BD8F
:102B400000000240740A0020AFF30080AFF3008061
:102B50000E4A0F4B5168F0B486681F6F4468C56811
:102B6000D0E90423891BC91B521843F10003C0E9B3
:102B7000042303688160A14205F1010588BF41601B
:102B80009942C56038BF0160F0BC7047001000E09A
:102B900038080020AFF30080AFF30080AFF300806F
:102BA0000D4A106870B4036895691360012600210E
:102BB000AC685A6006779061297700E01B689A68D4
:102BC000A242FBD85A686A602B60294615605D6096
:102BD00070BCFDF785BB00BF38080020AFF3008054
:102BE000074B30B41A689969146808770125636047
:102BF00015771C60104630BC9A61FDF771BB00BFB1
:102C000038080020AFF30080AFF30080AFF30080FE
:102C100010B5054CA369036002461A620320FFF752
:102C2000DFFFA369186A10BD38080020AFF30080E9
:102C300000228168084B10B4044602771B689A682A
:102C40008A42FBD25A6862602360204614605C604E
:102C50005DF8044B704700BF38080020AFF30080D8
:102C6000F8B50468A04207460D461FD0002602E0D2
:102C70002468A7421AD0E3682B43E36015B12269A8
:102C80001342F5D06068A268016B037F0A430A2BE8
:102C900002630CD00B2BEBD1036A1A409342E7D1AD
:102CA0000662FFF7C5FF2468A742E4D1F8BD036AB6
:102CB0001A42DDD00662FFF7BBFFF4E7AFF30080F6
:102CC00070B51A4E04462023B06983F31188256835
:102CD000E3684363AC4222D0816B4BB11A689342E4
:102CE00003D09268914238BF1146DB68002BF5D1C2
:102CF0002B686A6B8160236028465C60E260A56097
:102D00006C63FFF795FF3268B36992689B689A42DB
:102D100001D9FFF745FF002383F3118870BD00231D
:102D2000A360002383F3118870BD00BF3808002022
:102D300070B52F4B054680689C69002853D0A26867
:102D40008368934206D2037F8260062B32D0072B22
:102D50001CD09BB12B4603E09968A268914202D334
:102D60001B689D42F8D15A686260236014605C6001
:102D700025620620BDE87040FFF732BF90E80C00E6
:102D80001A6002685360FFF753FFE3E790E80A0018
:102D90001960066A01684B60334602E09968914207
:102DA00002D31B689E42F9D15A68426003601060EA
:102DB0005860CFE790E80A001960066A01684B6026
:102DC000334602E09968914202D31B689E42F9D1D2
:102DD0005A684260036010605860B068A2688368F7
:102DE0009342B0D3B6E7636BEB60AC60656370BDD4
:102DF00038080020AFF30080AFF30080AFF300800D
:102E000038B50E4B9C69636A206204F124059D422B
:102E100007D01A6862621846FFF70AFF636AAB427E
:102E2000F7D1637F9B0704D1636922691A61226924
:102E300053610F20BDE83840FFF7D2BE38080020AC
:102E4000FEE700BFAFF30080AFF30080AFF3008078
:102E5000F0B404780CB30E780746C6B1A64210D081
:102E60004B1C01E094420BD01D4613F8012B002AA5
:102E7000F8D144780130002CEED12E78074600E0DE
:102E80002646002E14BF38460020F0BC7047447818
:102E90000D460130002CDFD1EFE72046F0BC704733
:102EA000F0B40478CCB10E7807469EB10546B44222
:102EB0000AD00A4601E09C4206D012F8013F002BDE
:102EC000F9D1281AF0BC70476C787D1C002CF8D022
:102ED0002F46ECE73046F0BC70472046F2E700BFD3
:102EE000FFFF0000000000000000000000000000E4
:102EF000444D41206661696C7572650020090000CF
:102F0000286E756C6C29000025730A0D0000000006
:102F100055736167653A2025730D0A0073797374E0
:102F2000696D6500256C750D0A000000696E666F9D
:102F3000000000004B65726E656C3A202020202056
:102F4000202025730D0A0000332E322E30000000A1
:102F5000436F6D70696C65723A20202020202573C4
:102F60000D0A000047434320342E382E34203230DF
:102F7000313430353236202872656C6561736529CD
:102F8000205B41524D2F656D6265646465642D342C
:102F90005F382D6272616E6368207265766973694D
:102FA0006F6E203231313335385D00004172636815
:102FB00069746563747572653A2025730D0A0000A3
:102FC00041524D7637452D4D00000000436F72652C
:102FD0002056617269616E743A2025730D0A0000F3
:102FE000436F727465782D4D34000000506F727419
:102FF00020496E666F3A2020202025730D0A0000BC
:10300000416476616E636564206B65726E656C20E9
:103010006D6F646500000000506C6174666F726DC6
:103020003A202020202025730D0A000053544D33F0
:103030003246333033784320416E616C6F6720260F
:103040002044535000000000426F6172643A202017
:1030500020202020202025730D0A000053544D69A4
:1030600063726F656C656374726F6E69637320530E
:10307000544D333246332D446973636F76657279EC
:10308000000000004275696C642074696D653A2027
:1030900020202573257325730D0A00004D617220D1
:1030A0002038203230313600202D200031383A339C
:1030B000333A353700000000000000000000000037
:1030C00001090008D107000851080008310700086D
:1030D0004108000821070008F1080008C10700089E
:1030E000DC330008500C0020500C0020500C002055
:1030F000DC330008000000000000000000000000B9
:10310000DC330008000000000000000000000000A8
:10311000DC33000800000000000000000000000098
:10312000DC33000800000010000000100000001058
:10313000DC33000800000000000000000000000078
:10314000DC33000800000000000000000000000068
:10315000DC33000800000000000000000000000058
:1031600014330008C11000081C330008711F000848
:10317000000000000000000000000000000000004F
:1031800000000240080002400100000000000000B2
:1031900000000B00000002401C0002400200000082
:1031A0000000000004010C0000000240300002405A
:1031B000040000000000000008020D0000000240B2
:1031C0004400024008000000000000000C030E0054
:1031D0000000024058000240100000000000000003
:1031E00010040F00000002406C00024020000000AC
:1031F00000000000140510000000024080000240A2
:103200004000000000000000180611000004024009
:1032100008040240800000000000000000073800A1
:10322000000402401C0402400001000000000000F5
:10323000040839000004024030040240000200008B
:103240000000000008093A00000402404404024063
:1032500000040000000000000C0A3B0000040240D3
:10326000580402400008000000000000100B3C0061
:103270007368656C6C0000000D0A43686962694FF1
:10328000532F5254205368656C6C0D0A00000000E7
:1032900063683E20000000005E440000746F6F20F1
:1032A0006D616E7920617267756D656E74730D0A5C
:1032B00000000000657869740000000068656C70AB
:1032C00000000000436F6D6D616E64733A206865A5
:1032D0006C70206578697420000000002573200060
:1032E00025730000203F0D0A000000000D0A6C6FDE
:1032F000676F75740000000069646C650000000071
:103300000A0D557020616E642052756E6E696E678D
:103310000A0D00006D796563686F00006266000049
:103320006D61696E00168018040440080C101418B2
:10333000001C1D1E00000000000000000000000036
:10334000BC090020603100080000000000000000FF
:10335000636D640053656E743A20256420257820DF
:103360000A0D000052656365697665643A000000E5
:10337000202563005368656C6C20446965640A0D00
:103380000000000052657374617274696E67206694
:10339000726F6D207465726D696E6174696F6E20F5
:0C33A00068616E646C65720A0D0000002C
:1033B000412400082C2F0008211100081C2F0008B0
:1033C000F1100008000000000000000000000000F4
:0C33D00000000048080030000000000071
:0400000508000201EC
:00000001FF
