:020000040800F2
:100000000004002001020008E14B0008E14B000859
:10001000E14B0008E14B0008E14B0008E14B000810
:10002000E14B0008E14B0008E14B000821430008C8
:10003000E14B0008E14B0008E14B0008E14B0008F0
:10004000E14B0008413000083131000881310008DF
:10005000E14B0008E14B0008612D0008B12D0008BC
:10006000012E0008512E0008A12E0008A12500082D
:100070001126000881260008F126000861270008E3
:10008000D127000841280008E14B0008E14B000897
:10009000E14B0008E14B0008E14B0008F12E00089D
:1000A000E14B0008E14B0008E14B0008E14B000880
:1000B000B12C0008E14B0008E14B0008E14B0008BF
:1000C000E14B0008E14B0008E14B0008E14B000860
:1000D000E14B0008F1230008E14B0008E14B000868
:1000E000912F000891300008E1300008E14B000832
:1000F000E14B0008E14B0008E14B0008E14B000830
:10010000E14B0008E14B0008E14B0008E14B00081F
:10011000E14B0008E14B0008E14B0008E14B00080F
:10012000B12800082129000891290008012A0008A7
:10013000712A0008E14B0008E14B0008E14B000880
:10014000D131000851320008E1320008E14B0008CB
:10015000E14B0008E14B0008E14B0008E14B0008CF
:10016000E14B0008E14B0008E14B0008E14B0008BF
:10017000E14B0008E14B0008E14B0008E14B0008AF
:10018000E14B0008E14B0008E14B0008E14B00089F
:10019000E14B0008E14B0008E14B0008E14B00088F
:1001A000000000000000000000000000000000004F
:1001B000000000000000000000000000000000003F
:1001C000000000000000000000000000000000002F
:1001D000000000000000000000000000000000001F
:1001E000000000000000000000000000000000000F
:1001F00000000000000000000000000000000000FF
:1002000072B6264880F30988022080F31488BFF371
:100210006F8F04F095FC02F043F921482149224AEE
:1002200091423CBF41F8040BFFF7FABF1F491B4A3C
:1002300091423CBF41F8040BFFF7FABF1C491D4A2D
:100240001D4B9A423EBF51F8040B42F8040BFFF7D6
:10025000F8BF002019491A4A91423CBF41F8040BEB
:10026000FFF7FABF04F084FC04F072FC154C164D45
:10027000AC4280F2058054F8041B8847FFF7F8BFB2
:1002800000F08EFD114C124DAC4280F2058054F806
:10029000041B8847FFF7F8BF04F062BC0008002089
:1002A0005555555500000020000400200004002092
:1002B000B86A0008000800205409002058090020EE
:1002C000581F002000020008000200080002000879
:1002D0000002000800000000000000000000000014
:1002E0002DE9F04FC1F80CD0D0F80CD0BDE8F08F5C
:1002F000002383F311882846A047002005F038FB2F
:1003000005F0B6F900DFFEE7000000000000000085
:1003100040EA010C1CF0070F23D1BDF1100DCDE90F
:100320000245CDE900676FF000064FF0000700BFFF
:10033000F0E80223F1E80245A24282FA46FCA7FA5D
:1003400086FC08BFBCF1000F40F0D780AB4283FAB7
:1003500046FCA7FA86FC08BFBCF1000F40F0CA803B
:10036000E6E710F0030C21D020F0030050F8042B36
:100370005FEACC7C08D00FD211F801CB5FFA92F380
:10038000B3EB0C0C10D17BB111F801CB5FFAA2F3E7
:10039000B3EB0C0C08D13BB111F801CB5FFAB2F30F
:1003A000B3EB0C0C00D10BB960467047BDF1100DDA
:1003B000CDE90245CDE900676FF000064FF0000778
:1003C00011F0030C2DD110F0040F0DD050F8042BB8
:1003D00051F8044BA24282FA46FCA7FA86FC08BFF9
:1003E000BCF1000F40F0898011F0040F9FD051F84C
:1003F000045B00BFF0E80223AA4282FA46FCA7FA97
:1004000086FC08BFBCF1000F71D1F1E80245A342A0
:1004100083FA46FCA7FA86FC08BFBCF1000F63D143
:10042000E8E721F00301BCF1020F1ED03BDA51F8DE
:10043000045B00BF50F8043B4FEA152583FA46FCE5
:10044000A7FA86FCB7EB0C2F03EA162208BFAA42D4
:100450004DD151F8045BBCF1000F82EA03034FEA6F
:10046000056208BF93423CD1E4E751F8045B00BF4A
:1004700050F8043B4FEA154583FA46FCA7FA86FC80
:10048000B7EB0C4F03EA164208BFAA422FD151F82E
:10049000045BBCF1000F82EA03034FEA054208BF88
:1004A00093421ED1E4E751F8045B00BF50F8043BCF
:1004B0004FEA156583FA46FCA7FA86FCB7EB0C6F8A
:1004C00003EA166208BFAA4211D151F8045BBCF1DD
:1004D000000F82EA03034FEA052208BF934200D1CE
:1004E000E4E719BA12BA0AE019BA22BA07E011BA57
:1004F0002ABA04E019BA2ABA01E011BA22BA9CFA5F
:100500008CF0DDE90067DDE902451DF1100D38B121
:10051000B0FA80F0C0F1180021FA00F122FA00F2DE
:100520000120914298BF8041704700BF0000000049
:1005300082B00190019B93F820300F2B14BF002351
:100540000123DBB2184602B0704700BFAFF3008052
:1005500000B585B003900291019203980299019A27
:100560004FF0FF3304F00CFA05B05DF804FB00BF58
:1005700000B585B00390029101920122019B02FA1D
:1005800003F3039802991A46FFF7E2FF05B05DF8FE
:1005900004FB00BFAFF30080AFF30080AFF3008037
:1005A00000B585B0019000910023039361E0009BAA
:1005B000BF2B25D9112303930BE0039B113B019A19
:1005C00013441A782E49039B0B441A70039B013382
:1005D0000393039BCF2BF0D94FF47A7005F0B8F951
:1005E0002748D021274A00F053F84FF47A7005F0DD
:1005F000AFF9019BBF330193009BBF3B009338E0F1
:10060000009B032B09D9009BDBB20D33DBB263F0F7
:100610007F03DAB21A4BDA7005E0009BDBB20D33D0
:10062000DAB2174BDA70112303930BE0039B113BF3
:10063000019A13441A781249039B0B441A70039BC6
:1006400001330393009B03F11102039B9A42EDD8FF
:100650004FF47A7005F07CF9009B11330848194675
:10066000084A00F015F84FF47A7005F071F900238C
:100670000093009B002B9AD105B05DF804FB00BFEE
:10068000700800202C0C0020AFF30080AFF3008036
:100690002DE9F04395B000AFF8600B467A60FB722D
:1006A000AC4803F045F9AB48AB4903F0A9F8A948B9
:1006B00003F0BEF8FB7A043BFB640123BB64002318
:1006C0007B6400233B64F6E0FB6C102B69DDFE23AA
:1006D000BB74FB6C103BFB6410233B7518E03B7D47
:1006E000FB7407F1130207F112039A48012103F08A
:1006F000BFF8BB7CFE2B0ED0012005F029F99548F0
:1007000003F0A6F8012005F023F9924803F090F8D1
:10071000BB7CFE2BE3D000237B750A23BB759023A3
:10072000FB753B6CBB6311E07B6C04333A6C0432A9
:10073000F9680A44127807F150010B4403F83C2C85
:100740007B6C01337B643B6C01333B64BB6B03F11B
:1007500010023B6C9A42E7DC0FE007F11402BB6C1D
:1007600013441B78FB7407F113037A4801211A46DE
:1007700003F09EF8BB6C0133BB64BB6C132BECDD48
:100780000123BB6400237B64012005F0E1F871487C
:1007900003F05EF81E2005F0DBF86E4803F048F821
:1007A00089E06B461E46FB6C191D4B1E7B630B4696
:1007B0001A464FF00003DD0045EA5275D4000B469F
:1007C0001A464FF000034FEAC30949EA52794FEA4B
:1007D000C2080B460733DB08DB00ADEB030D6B46AD
:1007E00000333B63FE2387F829303B6B10221A70DD
:1007F0001BE03B6B1B7887F82A3007F12A0207F1D0
:1008000029035448012103F033F897F82930FE2BCF
:100810000FD0012005F09CF84E4803F019F8012094
:1008200005F096F84B4803F003F897F82930FE2BB3
:10083000DFD03B6B00225A703B6B0A229A70FB6C34
:10084000DAB23B6BDA703B6CFB620EE07B6C04331C
:100850003A6C0432F9680A4411783A6BD1547B6CD3
:1008600001337B643B6C01333B64FA6AFB6C1A44D2
:100870003B6C9A42EADC0FE03A6BBB6C13441B788A
:1008800087F82A3007F12A03324801211A4603F07B
:100890000FF8BB6C0133BB64FB6C1A1DBB6C9A4236
:1008A000EADC0123BB6400237B6400233B646FF01C
:1008B0000103FB64B546FB6C002B3FF705AF2548F1
:1008C00002F0C6FF1E2005F043F8224802F0B0FFF8
:1008D0000023FB6319E01F4801217A6803F008F840
:1008E0007B681B78102B0BD07B681B78202B07D0E4
:1008F0007B681B78402B03D07B681B78802B04D14E
:100900007B6801337B600123FB63FB6B002BE2D030
:10091000104801217A6802F0EBFF7B6801337B60AD
:100920000C4801217A6802F0E3FF7B6801337B60A9
:1009300007F12B03074801211A4602F0D9FF7B6813
:10094000033397F82B201A707B6801337B600023F8
:10095000FB640EE03C0B0020400900200D48012103
:100960007A6802F0C5FF7B6801337B60FB6C013362
:10097000FB6497F82B301A46FB6C9A42EEDC054874
:1009800002F066FF034802F0E3FF5437BD46BDE8BE
:10099000F08300BF3C0B0020AFF30080AFF300807A
:1009A00000B583B00190084B4FF400721A8341F2F6
:1009B000883004F0CDFF044B4FF400725A8341F2AB
:1009C000883004F0C5FFEEE700100048AFF3008068
:1009D00000B593B00190012004F0BAFF37E041F276
:1009E000883004F0B5FF03AB2D4816211A46FFF7F7
:1009F0004FFE2C482C4900F00BFD2C4804F0A8FFBA
:100A000008AB2B4815211A46FFF742FE9DF824300B
:100A1000312B07D12348274900F0FAFC264B01224D
:100A20001A6018E01F48254900F0F2FC03AB244887
:100A300015211A46FFF72CFE1F4B00221A60194899
:100A4000204900F0E5FC4CF2503004F081FF1A4BD5
:100A50001B68002BC3D0184B1B68002B1BD01A48F7
:100A60004FF48051FFF79CFD0E48184900F0D0FC70
:100A7000174804F06DFF0DAB164814211A46FFF716
:100A800007FE0848144900F0C3FC0B4B00221A6013
:100A9000064804F05DFF42F2107004F059FFD6E7FB
:100AA00020080020A80B002050610008A08601004B
:100AB0004808002068610008401C0020746100089C
:100AC000340800209C610008400C0020AC61000844
:100AD000400D03005C080020BC610008AFF30080FB
:100AE0002DE9F04F95B000AF78613961FA60FB688D
:100AF0001B6878481946FFF70BFC0346002B40F0B3
:100B0000E4800023A7F84E30002387F84D3004E03E
:100B1000B7F84E300133A7F84E30FB6804331A683B
:100B2000B7F84E3013441B78002BF1D1B7F84E10B4
:100B30006B461E460B46013BFB638AB24FF0000337
:100B4000D8007860786840EA52707860D0008AB245
:100B50004FF000034FEAC30B4BEA527B4FEAC20A45
:100B60000B460733DB08DB00ADEB030D6B460033B0
:100B7000BB63002387F84D300FE097F84D30FA68DB
:100B80000432116897F84D200A441178BA6BD15499
:100B900097F84D30013387F84D3097F84D309BB2C0
:100BA000B7F84E209A42E8D8B7F84E30DAB24A4B3E
:100BB0001B781344DBB2013387F8373097F83710CE
:100BC0006B469A460B46013B3B63CAB24FF00003AB
:100BD0004FEAC30949EA52794FEAC208CAB24FF054
:100BE0000003DD0045EA5275D4000B460733DB08ED
:100BF000DB00ADEB030D6B460033FB620023BB64EF
:100C000000237B640AE0354ABB6C13441A78F96A06
:100C1000BB6C0B441A70BB6C0133BB642E4B1B784E
:100C20001A46BB6C9A42EEDCB7F84E30DAB2F96A7B
:100C3000BB6C0B441A70BB6C0133BB640DE0BA6B28
:100C40007B6C13441A78F96ABB6C0B441A70BB6C4A
:100C50000133BB647B6C01337B6497F83720BB6C3A
:100C60009A42ECDCB7F84E20FB6A78691C4900F028
:100C7000CFFBF96A97F8372007F1180308461146A9
:100C80001A46FFF705FD144B1B7801333B64786966
:100C9000144900F0BDFB0CE007F118023B6C134453
:100CA0001B78786910491A4600F0B2FB3B6C01339F
:100CB0003B643B6C132BEFDD78690C4900F0A8FB1B
:100CC0001E2004F045FED546B5465437BD46BDE866
:100CD000F08F00BFD06100081C0800201808002019
:100CE000D4610008E4610008F0610008F4610008C4
:100CF00000B587B0039002910192002305930CE0A8
:100D0000059B9B00019A13441B68039806491A46E9
:100D100000F07EFB059B01330593059A029B9A42E6
:100D2000EEDB07B05DF804FBF8610008AFF300806C
:100D300000B583B001901448144900F069FB144BCE
:100D40001B68002B1DD0124B1B681846FFF7F0FBE9
:100D50000346002B15D00E4B1B68184604F050FEBE
:100D600009480C4900F054FB4FF47A7004F0F0FD90
:100D7000094840F6C801402200F0CAFD0246044B73
:100D80001A6003B05DF804FBA80B00200C62000899
:100D9000280C00201C620008B06A0008AFF3008035
:100DA00000B589B003F014FB04F09AF8454800211F
:100DB00002F04EFC4448102140F2823200F078FEEE
:100DC0004148202140F2823200F072FE4FF0904004
:100DD000202140F2822200F06BFE4FF09040402133
:100DE00040F2822200F064FE4FF09040802140F2F9
:100DF000822200F05DFE4FF090404FF4807101229E
:100E000000F056FE31480821012200F051FE4FF05B
:100E100090434FF480721A832B480821202200F05F
:100E200047FE28482A4900F0F3FA00F059FD002354
:100E3000079318E00799274BA3FB01239A08134651
:100E40009B001344CA1A002A05D1234A079B134466
:100E500031221A7004E0204A079B134430221A7092
:100E6000079B01330793079BB3F5805FE2D302AB87
:100E70001A4819460022FFF77BFB194840F6C801C3
:100E8000402200F045FD0246164B1A6000230093F5
:100E900015484FF4E4714222144B04F039FD00234D
:100EA000009313484FF4A4714122124B04F030FD1B
:100EB0004FF0FF3003F014FE03460F48194603F0CD
:100EC000E7FDF5E7A80B00200008004800100048E7
:100ED00044620008CDCCCCCC400C0020240C002077
:100EE000B06A0008280C0020901D0020D1090008DD
:100EF000481C0020A109000850090020AFF3008021
:100F000088B00390029101920093029B0593009B8D
:100F1000002B02D1029B049301E0009B0493039BEE
:100F20000B330693059B019AB3FBF2F2019901FB87
:100F300002F29B1A0793079B30330793079B392BC9
:100F400002DD079B07330793069B013B0693079B34
:100F5000DAB2069B1A70059A019BB2FBF3F3059374
:100F6000049A019BB2FBF3F30493049B002BD9D1A9
:100F7000039B0B331A46069BD31A0793039B5A1CF9
:100F80000392069A511C069112781A70079B013B36
:100F90000793079B002BF1D1039B184608B07047BD
:100FA00000B585B003900291019203980299019ACD
:100FB0000023FFF7A5FF0346184605B05DF804FBC4
:100FC00000B591B003900291019200230993029B16
:100FD0005A1C02921B788DF837309DF83730002B61
:100FE00001D1099B0DE29DF83730252B0BD0039BD7
:100FF0001B689B689DF83720039811469847099B0A
:1010000001330993E3E704AB0F9304AB0E93002382
:101010008DF82230029B1B782D2B05D1029B0133CA
:10102000029301238DF8223020238DF83630029B65
:101030001B78302B05D1029B0133029330238DF8AE
:10104000363000230A93029B5A1C02921B788DF8BB
:1010500037309DF837302F2B09D99DF83730392B91
:1010600005D89DF83730303B8DF8373009E09DF8D2
:1010700037302A2B10D1019B1A1D01921B688DF865
:1010800037300A9A13469B0013445B001A469DF8BA
:10109000373013440A93D6E700230B939DF837307B
:1010A0002E2B29D1029B5A1C02921B788DF83730C7
:1010B0009DF837302F2B09D99DF83730392B05D8BB
:1010C0009DF83730303B8DF8373009E09DF83730E8
:1010D0002A2B11D1019B1A1D01921B688DF8373004
:1010E0000B9A13469B0013445B000B939DF837301B
:1010F0000B9A13440B93D5E79DF837306C2B03D034
:101100009DF837304C2B0DD101238DF82330029BF5
:101110001B78002B1AD0029B5A1C02921B788DF868
:10112000373014E09DF83730402B05D99DF8373023
:101130005A2B01D8012300E000238DF823309DF8BD
:10114000233003F001038DF8233000E000BF9DF849
:101150003730443B342B00F2E28001A252F823F0F6
:10116000971200081F1300081F1300081F13000820
:101170001F130008971200081F1300081F13000810
:101180001F1300081F1300081F130008E9120008AE
:101190001F1300081F1300081F1300081F13000867
:1011A0001F130008E11200081F1300081F13000896
:1011B000D91200081F1300081F1300081F1300088E
:1011C0001F1300081F1300081F1300081F13000837
:1011D0001F1300081F1300081F1300083512000812
:1011E000971200081F1300081F1300081F130008A0
:1011F0001F130008971200081F1300081F13000890
:101200001F1300081F1300081F130008E91200082D
:101210001F1300081F1300081F1300084F120008B7
:101220001F130008E11200081F1300081F13000815
:10123000D912000820238DF836300F9B5A1C0F92CC
:10124000019A111D01911268D2B21A706DE020232B
:101250008DF83630019B1A1D01921B680E930E9B70
:10126000002B01D1694B0E930B9B002B02D147F64B
:10127000FF730B930E9B0F9302E00F9B01330F93B1
:101280000F9B1B78002B50D00B9B013B0B930B9BB0
:10129000002BF2DA49E09DF82330002B05D0019BAA
:1012A0001A1D01921B68079304E0019B1A1D01920D
:1012B0001B680793079B002B07DA0F9B5A1C0F92A2
:1012C0002D221A70079B5B4207930F9807990A22F9
:1012D000FFF766FE0F9028E010238DF8373006E008
:1012E0000A238DF8373002E008238DF837309DF857
:1012F0002330002B05D0019B1A1D01921B68079318
:1013000004E0019B1A1D01921B6807939DF837307A
:101310000F9807991A46FFF743FE0F9005E00F9BC1
:101320005A1C0F929DF837201A700F9A0E9BD31AF1
:101330000C930A9A0C9BD31A0A930A9B002B01DA8E
:1013400000230A939DF8223083F00103DBB2002BC7
:1013500002D00A9B5B420A930A9B002B37DA0E9B52
:101360001B782D2B13D19DF83630302B0FD1039BDA
:101370001B689A680E9B591C0E911B78039819469E
:101380009047099B013309930C9B013B0C93039BF2
:101390001B689B689DF83620039811469847099B67
:1013A000013309930A9B01330A930A9B002BEED168
:1013B0000DE0039B1B689A680E9B591C0E911B78CD
:1013C000039819469047099B0133099300E000BF39
:1013D0000C9B013B0C930C9B002BEADA0DE0039B6A
:1013E0001B689B689DF83620039811469847099B17
:1013F000013309930A9B013B0A930A9B002BEED110
:10140000E5E5184611B05DF804FB00BF6062000816
:101410000EB400B584B0019006AB02930198059913
:10142000029AFFF7CDFD0390039B184604B05DF8C8
:1014300004EB03B0704700BFAFF30080AFF3008050
:1014400082B020230193019B83F3118802B070477F
:1014500082B000230193019B83F3118802B070478F
:101460004FF080435B6A1846704700BFAFF30080BF
:1014700008B5FFF7F5FF0346184608BDAFF3008037
:1014800008B5FFF7DDFF08BDAFF30080AFF30080C4
:1014900008B5FFF7DDFF08BDAFF30080AFF30080B4
:1014A00008B5FFF7E5FF0346184608BDAFF3008017
:1014B00000B583B0FFF7E4FFFFF7F2FF0190FFF7FD
:1014C000E7FF019B184603B05DF804FBAFF3008013
:1014D00082B00190024B9B69019A9A6102B07047F9
:1014E00058090020AFF30080AFF30080AFF3008015
:1014F00082B00190019B019A1A6002B0704700BF50
:1015000000B583B001900198002103F061FA03B0A7
:101510005DF804FBAFF30080AFF30080AFF3008011
:1015200000B587B0039002910192039B002B02D07B
:10153000019B039A1A60019B1B680593059B002B76
:1015400001D1002320E00598029904F071FB0346C5
:10155000059A134405930598029904F041FB02464D
:10156000019B1A60019B1B68002B06D0019B1B6826
:10157000591C019A116000221A70059B1B78002BE0
:1015800001D0059B00E00023184607B05DF804FB7E
:1015900000B583B00190009101980349009AFFF7CC
:1015A00037FF03B05DF804FB98630008AFF30080D9
:1015B00000B583B00190009109E0009B1B68019881
:1015C00006491A46FFF724FF009B08330093009B4F
:1015D0001B68002BF1D103B05DF804FBA463000885
:1015E00000B587B0059004910392049B002B04DDA5
:1015F00005981949FFF7CCFF2AE005981749184AC2
:10160000FFF706FF05981749174AFFF701FF0598EE
:101610001649174AFFF7FCFE05981649164AFFF7C8
:10162000F7FE05981549164AFFF7F2FE0598154989
:10163000154AFFF7EDFE05981449154AFFF7E8FE35
:10164000144B009305981449144A154BFFF7E0FE1C
:1016500007B05DF804FB00BFA8630008B063000892
:10166000C4630008CC630008E06300082864000835
:101670003C640008486400085C6400086864000872
:101680007C64000894640008A8640008C46400082E
:10169000D86400082865000800650008186500087F
:1016A00024650008AFF30080AFF30080AFF3008043
:1016B00000B585B0039002910192029B002B04DDDE
:1016C00003980749FFF764FF07E0FFF7F1FE0346C1
:1016D000039804491A46FFF79BFE05B05DF804FB2A
:1016E000346500083C650008AFF30080AFF300806C
:1016F00000B585B0039002910192009313E0039B23
:101700001B6818460199FEF703FE0346002B07D11C
:10171000039B5B6802980099069A9847002307E0AC
:10172000039B08330393039B1B68002BE7D1012322
:10173000184605B05DF804FBAFF30080AFF30080FE
:1017400000B5A1B00390039B1B681D93039B5B68CE
:101750001C935548FFF7BCFE1D985449FFF758FEEF
:101760001D985349FFF754FE0AAB1D9819464022B5
:1017700000F0E6F80346002B04D01D984D49FFF712
:1017800047FE8AE00AAA1AAB10464B491A46FFF7F1
:10179000C7FE1B901B9B1E9300231F9312E01F9BF1
:1017A000032B06DD1D984549FFF732FE00231E93EB
:1017B00012E01F9B5A1C1F929B0020AA13441B9AE5
:1017C00043F86C2C1AAB00203B491A46FFF7A8FEE1
:1017D0001B901B9B002BE2D11F9B9B0020AA134454
:1017E000002243F86C2C1E9B002BB9D01E98344964
:1017F000FEF78EFD0346002B07D11F9B002B4CDD0F
:101800001D982F49FFF7C4FEAAE71E982D49FEF741
:101810007FFD0346002B1BD11F9B002B04DD1D9871
:101820002849FFF7B5FE9BE71D982749FFF7F0FD14
:101830001D982649FFF7BCFE1C9B002B03D01D986A
:101840001C99FFF7B5FE1D982149FFF7E1FD87E7D9
:1018500005AB00931D481D991E9A1F9BFFF748FF7B
:101860000346002B3FF47CAF1C9B002B0BD005AB39
:1018700000931C981D991E9A1F9BFFF739FF034682
:10188000002B3FF46DAF1D9812491E9AFFF7C0FD63
:101890001D981149FFF7BCFD62E7002000F028F811
:1018A00021B05DF804FB00BF446500084C650008EA
:1018B000646500086C650008786500087C650008B0
:1018C000946500089C650008A465000800080020D5
:1018D000BC650008C0650008C4650008AFF300805F
:1018E00008B50248FFF704FE08BD00BF240C002025
:1018F00000B583B00190FFF7C3FD0448FFF700FE79
:10190000019804F045F803B05DF804FB240C0020B6
:1019100000B587B0059004910392059B00930020C9
:101920000499039A034B02F063FE0346184607B07E
:101930005DF804FB41170008AFF30080AFF30080AF
:1019400000B587B0039002910192029B059300E0DD
:1019500000BF039B1B685B680DF1130203981146DF
:10196000012298470346002B01D1012358E09DF83E
:101970001330042B05D103982B49FFF749FD0123B0
:101980004EE09DF81330082B03D09DF813307F2BC9
:101990001DD1059A029B9A42DAD0039B1B689B6873
:1019A0009DF81320039811469847039B1B689B687A
:1019B000039820219847039B1B689B689DF8132080
:1019C000039811469847059B013B0593C1E79DF895
:1019D00013300D2B08D103981449FFF719FD059B0F
:1019E00000221A7000231BE09DF813301F2B01D832
:1019F00000BFAEE7019B013B029A1A44059B9A4245
:101A0000A7D9039B1B689B689DF813200398114678
:101A10009847059B5A1C05929DF813201A7098E769
:101A2000184607B05DF804FBCC650008BC650008EB
:101A300000B583B00190164B154A526942F4FC027E
:101A40005A61019B4FF09040194601F071FC019BD7
:101A50001C331048194601F06BFC019B38330E48CB
:101A6000194601F065FC019B54330C48194601F0FE
:101A70005FFC019B70330A48194601F059FC019B39
:101A80008C330848194601F053FC03B05DF804FBA1
:101A9000001002400004004800080048000C004804
:101AA0000010004800140048AFF30080AFF300803E
:101AB0008EB0039002910192019B03F003030D93FA
:101AC000019B03F004039B080C93019B03F0180394
:101AD000DB080B93019B03F060035B090A93019BF6
:101AE00003F4F063DB09089300230993029B03F0DE
:101AF0000103002B54D0099B03F007039B00089AB5
:101B000002FA03F30793099B03F007039B000F22DC
:101B100002FA03F30693099B072B09D8039B1A6A61
:101B2000069BDB431A40079B1A43039B1A6208E09B
:101B3000039B5A6A069BDB431A40079B1A43039B8D
:101B40005A62099B012202FA03F30593039B5A6828
:101B5000059BDB431A400C9B1A43039B5A60099B6D
:101B60005B00032202FA03F30493039B9A68049B2D
:101B7000DB431A400B9B1A43039B9A60039BDA6872
:101B8000049BDB431A400A9B1A43039BDA60039BC6
:101B90001A68049BDB431A400D9B1A43039B1A608F
:101BA000029B5B080293029B002B0FD00C9B5B00F7
:101BB0000C930B9B9B000B930A9B9B000A930D9B22
:101BC0009B000D93099B013309938FE70EB070477B
:101BD00082B020230193019B83F3118802B07047E8
:101BE00082B000230193019B83F3118802B07047F8
:101BF00008B5FFF7EDFF08BDAFF30080AFF300803D
:101C000008B5FFF7EDFF08BDAFF30080AFF300802C
:101C100008B5FFF7EDFF08BDAFF30080AFF300801C
:101C200008B5FFF7EDFF08BDAFF30080AFF300800C
:101C300000B583B00190019803F09AF903B05DF804
:101C400004FB00BFAFF30080AFF30080AFF3008070
:101C500008B5FFF7DDFF08BDAFF30080AFF30080EC
:101C600008B5FFF7DDFF08BDAFF30080AFF30080DC
:101C700000B583B0019000910198009903F000FF36
:101C800003B05DF804FB00BFAFF30080AFF300804A
:101C900000B583B001900091009B03F00803002B76
:101CA00002D02848FFF7C4FF019B5B6A5B68019A7A
:101CB000526A5268126822F00F021A60019B5B6A36
:101CC0001B68019A526A127C0F2101FA02F25A60D3
:101CD000019B1B6A5B68019A126A5268126822F0C3
:101CE0000F021A60019B1B6A1B68019A126A127C20
:101CF0000F2101FA02F25A60019B5B681B68002BFE
:101D00000FD0019B04221A70019B5B681B6801982D
:101D10009847019B1B78042B06D1019B02221A7065
:101D200002E0019B02221A70FFF792FF019B083329
:101D300018460021FFF79CFFFFF792FF03B05DF804
:101D400004FB00BFD0650008AFF30080AFF3008054
:101D500000B583B001900091009B03F00803002BB5
:101D600002D00348FFF764FF03B05DF804FB00BF37
:101D7000D0650008AFF30080AFF30080AFF30080C0
:101D800008B5144801F024FD124B134ADA61114BD7
:101D9000124A1A620F4B124A5A620E4B41F20A0261
:101DA0009A620C4B41F21802DA620E4801F010FD03
:101DB0000C4B0D4ADA610B4B0C4A1A62094B0C4A68
:101DC0005A62084B41F20A029A62064B41F218022B
:101DD000DA6208BD3C0B002000300140E4680008D6
:101DE000F8680008700B0020003C00405C690008A7
:101DF00070690008AFF30080AFF30080AFF300809C
:101E000000B585B00190019B1B78012B4DD1019A43
:101E10004F4B9A421BD1019B1B6A18460A214D4A1F
:101E2000019B00F08DFE03468DF80F30019B5B6A2D
:101E300018460A21484A019B00F082FE03468DF8AD
:101E40000F30464B454A926942F480529A61019A9A
:101E5000434B9A421BD1019B1B6A18460A213D4AFB
:101E6000019B00F06DFE03468DF80E30019B5B6A0E
:101E700018460A21384A019B00F062FE03468DF89D
:101E80000E30364B354AD26942F40042DA61019B8A
:101E90001B6A5B68019AD2690C329A60019B5B6A8B
:101EA0005B68019AD2690C329A60019B5B689B89DE
:101EB00003F470630293029B002B03D0029BB3F5E3
:101EC000E06F0FD8019B9B6A23F47062019B9A62BA
:101ED000019BDB6A23F47062019BDA62019B0122A1
:101EE0001A6312E0019B9B6A23F4706343F4A062BF
:101EF000019B9A62019BDB6A23F4706343F4A06246
:101F0000019BDA62019B02221A63019BDB690022BA
:101F10001A60019BDB69019A5268528942F00402FF
:101F200092B21A60019BDA69019B5B689B8943F45A
:101F3000805343F007039BB25360019BDB69019A16
:101F4000D269126842F040021A6005B05DF804FBE5
:101F50003C0B0020911C0008511D0008001002409D
:101F6000700B0020AFF30080AFF30080AFF3008070
:101F700082B00190019B5B685B68019A526812898C
:101F8000012101FA02F292B25A8302B0704700BFF7
:101F900082B00190019B5B685B68019A526812896C
:101FA000012101FA02F292B21A8302B0704700BF17
:101FB00084B00390029101920093039B1B6A5B68BB
:101FC000009ADA60039B1B6A5B68029A5A60039B63
:101FD0001B6A5B68039A926A42F080021A60039B54
:101FE0005B6A5B68019ADA60039B5B6A5B68029AD2
:101FF0005A60039B5B6A5B68039AD26A42F0800274
:102000001A60039B1B6A5B68039A126A5268126823
:1020100042F001021A60039B5B6A5B68039A526A92
:102020005268126842F001021A6004B0704700BFA3
:1020300084B0039002910192039B1B6A5B681A4A69
:10204000DA60039B1B6A5B68029A5A60039B1B6AF7
:102050005B68039A926A1A60039B5B6A5B68019AE9
:10206000DA60039B5B6A5B68029A5A60039B5B6A57
:102070005B68039AD26A42F080021A60039B1B6A73
:102080005B68039A126A5268126842F001021A6091
:10209000039B5B6A5B68039A526A5268126842F05B
:1020A00001021A6004B07047A40B0020AFF3008057
:1020B00084B0039002910192039B1B6A5B68019AB2
:1020C000DA60039B1B6A5B68029A5A60039B1B6A77
:1020D0005B68039A926A42F080021A60039B5B6A13
:1020E0005B68114ADA60039B5B6A5B68029A5A601C
:1020F000039B5B6A5B68039AD26A1A60039B1B6A44
:102100005B68039A126A5268126842F001021A6010
:10211000039B5B6A5B68039A526A5268126842F0DA
:1021200001021A6004B07047C0690008AFF3008074
:1021300082B020230193019B83F3118802B0704782
:1021400082B000230193019B83F3118802B0704792
:1021500008B5FFF7EDFF08BDAFF30080AFF30080D7
:1021600008B5FFF7EDFF08BDAFF30080AFF30080C7
:1021700008B5FFF7EDFF08BDAFF30080AFF30080B7
:1021800008B5FFF7EDFF08BDAFF30080AFF30080A7
:1021900082B00190019B5A69019B9B699A4205D1CB
:1021A000019B9B68002B01D0012300E0002303F07A
:1021B0000103DBB2184602B0704700BFAFF30080E6
:1021C00008B5FFF7D5FF08BDAFF30080AFF300807F
:1021D00008B5FFF7D5FF08BDAFF30080AFF300806F
:1021E00000B583B0019000910198009902F0F0FBD6
:1021F00003B05DF804FB00BFAFF30080AFF30080D5
:1022000084B001900091019B5B6F0393019B9A6FD7
:10221000009B1B68B2FBF3F2039BDA60009B9B6898
:1022200043F04002039B5A60009BDB6843F00102CD
:10223000039B9A60009B5B6843F4967343F0010331
:10224000039A1360039B4FF0FF321A6204B0704789
:1022500000B585B00190009100230393009B03F02B
:102260000803002B03D0039B43F080030393009BE0
:1022700003F00103002B03D0039B43F020030393DF
:10228000009B03F00203002B03D0039B43F04003A9
:102290000393009B03F00403002B03D0039B43F440
:1022A00080730393FFF78CFF019B04331846039957
:1022B000FFF796FFFFF78CFF05B05DF804FB00BF4A
:1022C00000B587B00190019B5B6F0593059B1B6870
:1022D0000493059BDB690393059B039A1A62039B96
:1022E00003F00F03002B03D001980399FFF7B0FF11
:1022F000039B03F48073002B0AD0FFF761FF019B5F
:10230000043318464FF40071FFF76AFFFFF760FFD0
:10231000039B03F02003002B0BD0FFF751FF059B1D
:102320009B8C9BB2DBB20198194601F0A9F9FFF72B
:102330004FFF049B03F08003002B23D0039B03F08B
:102340008003002B1ED0FFF73BFF019B3033184664
:1023500001F096FD0290029B002B0DDA019B0433E5
:1023600018460821FFF73CFF049B23F0C00343F00D
:102370004002059B1A6003E0029B9AB2059B1A85F6
:10238000FFF726FF039B03F04003002B16D0FFF757
:1023900017FF019B30331846FFF7FAFE0346002B68
:1023A00005D0019B043318461021FFF719FF049B49
:1023B00023F04002059B1A60FFF70AFF07B05DF8A3
:1023C00004FB00BFAFF30080AFF30080AFF30080E9
:1023D00082B00190034B034A126842F080021A60F7
:1023E00002B0704700380140AFF30080AFF30080C7
:1023F00008B50348FFF764FF01F0AAFF08BD00BF5E
:10240000A80B0020AFF30080AFF30080AFF3008093
:1024100008B508480021084A01F0EAF8054B074AC8
:102420005A67044B064A9A6725200C2101F0A0FA4E
:1024300008BD00BFA80B0020D123000800380140D0
:1024400000512502AFF30080AFF30080AFF30080AE
:1024500000B583B001900091009B002B01D10B4B84
:102460000093019B1B7A012B09D1019A084B9A42D8
:1024700005D1084B074A926942F480429A6101985B
:102480000099FFF7BDFE03B05DF804FBD0690008BA
:10249000A80B002000100240AFF30080AFF30080D3
:1024A00008B500F00DF808BDAFF30080AFF3008071
:1024B000704700BFAFF30080AFF30080AFF3008040
:1024C000334B334A126842F001021A60304B1B68EA
:1024D00003F00203002BF9D02D4B2D4A526822F055
:1024E00003025A602A4B2A4A52685A60284B5B689A
:1024F00003F00C03002BF9D1254B254A126802F09A
:10250000F9021A60224B00225A60214B204A1268BD
:1025100042F4A0221A601E4B1B6803F40033002B08
:10252000F9D01B4B1A4A526A42F001025A62184B08
:102530005B6A03F00203002BF9D0154B154A5A6071
:10254000134B4FF40452DA62114B30221A63104BD2
:102550000F4A126842F080721A600D4B1B6803F03C
:102560000073002BF9D00C4B12221A60084B084A5A
:10257000526842F002025A60054B5B6803F00C039C
:10258000082BF9D1024B024A126B1A63704700BF45
:102590000010024000241D0000200240AFF3008024
:1025A00000B583B000230193144B1A68002322FA6C
:1025B00003F303F00F030093009B03F00F03002BC2
:1025C00017D00E4B0022009901FA02F25A600C4B10
:1025D000019A53F83230002B0BD0094B019A53F873
:1025E00032200749019BDB000B445B6818460099C9
:1025F000904701F0ADFE03B05DF804FB000002401F
:10260000D00A0020AFF30080AFF30080AFF300806A
:1026100000B583B001230193144B1A68042322FAF6
:1026200003F303F00F030093009B03F00F03002B51
:1026300017D00E4B0422009901FA02F25A600C4B9B
:10264000019A53F83230002B0BD0094B019A53F802
:1026500032200749019BDB000B445B681846009958
:10266000904701F075FE03B05DF804FB00000240E6
:10267000D00A0020AFF30080AFF30080AFF30080FA
:1026800000B583B002230193144B1A68082322FA81
:1026900003F303F00F030093009B03F00F03002BE1
:1026A00017D00E4B0822009901FA02F25A600C4B27
:1026B000019A53F83230002B0BD0094B019A53F892
:1026C00032200749019BDB000B445B6818460099E8
:1026D000904701F03DFE03B05DF804FB00000240AE
:1026E000D00A0020AFF30080AFF30080AFF300808A
:1026F00000B583B003230193144B1A680C2322FA0C
:1027000003F303F00F030093009B03F00F03002B70
:1027100017D00E4B0C22009901FA02F25A600C4BB2
:10272000019A53F83230002B0BD0094B019A53F821
:1027300032200749019BDB000B445B681846009977
:10274000904701F005FE03B05DF804FB0000024075
:10275000D00A0020AFF30080AFF30080AFF3008019
:1027600000B583B004230193144B1A68102322FA96
:1027700003F303F00F030093009B03F00F03002B00
:1027800017D00E4B1022009901FA02F25A600C4B3E
:10279000019A53F83230002B0BD0094B019A53F8B1
:1027A00032200749019BDB000B445B681846009907
:1027B000904701F0CDFD03B05DF804FB000002403E
:1027C000D00A0020AFF30080AFF30080AFF30080A9
:1027D00000B583B005230193144B1A68142322FA21
:1027E00003F303F00F030093009B03F00F03002B90
:1027F00017D00E4B1422009901FA02F25A600C4BCA
:10280000019A53F83230002B0BD0094B019A53F840
:1028100032200749019BDB000B445B681846009996
:10282000904701F095FD03B05DF804FB0000024005
:10283000D00A0020AFF30080AFF30080AFF3008038
:1028400000B583B006230193144B1A68182322FAAB
:1028500003F303F00F030093009B03F00F03002B1F
:1028600017D00E4B1822009901FA02F25A600C4B55
:10287000019A53F83230002B0BD0094B019A53F8D0
:1028800032200749019BDB000B445B681846009926
:10289000904701F05DFD03B05DF804FB00000240CD
:1028A000D00A0020AFF30080AFF30080AFF30080C8
:1028B00000B583B007230193144B1A68002322FA52
:1028C00003F303F00F030093009B03F00F03002BAF
:1028D00017D00E4B0022009901FA02F25A600C4BFD
:1028E000019A53F83230002B0BD0094B019A53F860
:1028F00032200749019BDB000B445B6818460099B6
:10290000904701F025FD03B05DF804FB0004024090
:10291000D00A0020AFF30080AFF30080AFF3008057
:1029200000B583B008230193144B1A68042322FADC
:1029300003F303F00F030093009B03F00F03002B3E
:1029400017D00E4B0422009901FA02F25A600C4B88
:10295000019A53F83230002B0BD0094B019A53F8EF
:1029600032200749019BDB000B445B681846009945
:10297000904701F0EDFC03B05DF804FB0004024059
:10298000D00A0020AFF30080AFF30080AFF30080E7
:1029900000B583B009230193144B1A68082322FA67
:1029A00003F303F00F030093009B03F00F03002BCE
:1029B00017D00E4B0822009901FA02F25A600C4B14
:1029C000019A53F83230002B0BD0094B019A53F87F
:1029D00032200749019BDB000B445B6818460099D5
:1029E000904701F0B5FC03B05DF804FB0004024021
:1029F000D00A0020AFF30080AFF30080AFF3008077
:102A000000B583B00A230193144B1A680C2322FAF1
:102A100003F303F00F030093009B03F00F03002B5D
:102A200017D00E4B0C22009901FA02F25A600C4B9F
:102A3000019A53F83230002B0BD0094B019A53F80E
:102A400032200749019BDB000B445B681846009964
:102A5000904701F07DFC03B05DF804FB00040240E8
:102A6000D00A0020AFF30080AFF30080AFF3008006
:102A700000B583B00B230193144B1A68102322FA7C
:102A800003F303F00F030093009B03F00F03002BED
:102A900017D00E4B1022009901FA02F25A600C4B2B
:102AA000019A53F83230002B0BD0094B019A53F89E
:102AB00032200749019BDB000B445B6818460099F4
:102AC000904701F045FC03B05DF804FB00040240B0
:102AD000D00A0020AFF30080AFF30080AFF3008096
:102AE00082B0124B00221A600023019311E01049BA
:102AF000019A13469B0013449B000B445B68002221
:102B00001A600C4B019A002143F83210019B0133EB
:102B10000193019B0B2BEADD074B4FF0FF325A600C
:102B2000064B4FF0FF325A6002B07047300B002066
:102B3000D0680008D00A00200000024000040240D3
:102B400000B585B00390029101920093039B5B7CDA
:102B500001229A402F4B1B681340002B01D0012308
:102B600053E0039B5B7C1A462B4B019943F83210D0
:102B7000039B5B7C284ADB001344009A5A60254B78
:102B80001B6803F07F03002B05D1244B234A5269B5
:102B900042F001025A611F4B1B6803F47863002B5B
:102BA00005D11E4B1D4A526942F002025A61039B35
:102BB0005B68039A5268126822F00F021A60039B46
:102BC0001B68039A127C0F2101FA02F25A60039BE0
:102BD0005B6800221A60039B9A680E4B1B681340C7
:102BE000002B08D1019B002B05D0039B9B7C184632
:102BF000029900F0BDFE039B5B7C01229A40054BCD
:102C00001B681A43034B1A600023184605B05DF891
:102C100004FB00BF300B0020D00A0020001002404F
:102C200082B020230193019B83F3118802B0704787
:102C300082B000230193019B83F3118802B0704797
:102C400008B5FFF7EDFF08BDAFF30080AFF30080DC
:102C500008B5FFF7EDFF08BDAFF30080AFF30080CC
:102C600008B5FFF7EDFF08BDAFF30080AFF30080BC
:102C700008B5FFF7EDFF08BDAFF30080AFF30080AC
:102C800008B5FFF7EDFF08BDAFF30080AFF300809C
:102C900008B5FFF7EDFF08BDAFF30080AFF300808C
:102CA00008B502F075F908BDAFF30080AFF30080FE
:102CB00008B54FF080431B6903F00203002B09D0D5
:102CC0004FF0804300221A61FFF7DAFFFFF7E8FFB9
:102CD000FFF7DEFF01F03CFB08BD00BFAFF3008053
:102CE00008B5194B184AD26942F00102DA61174B54
:102CF000164A926842F001029A604FF0804341F612
:102D00001F429A624FF080434FF0FF32DA624FF079
:102D1000804300229A614FF0804300225A634FF0B3
:102D200080430022DA604FF0804300225A604FF067
:102D3000804301225A614FF0804301221A601C2017
:102D4000082100F015FE08BD00100240002004E03C
:102D500008B5024800F01CFB08BD00BF340B002082
:102D600000B583B00D4B5A690C4B1B68134003F040
:102D700001030193094B019A5A61019B03F001037E
:102D8000002B05D0064B5B685B680548002198471F
:102D900001F0DEFA03B05DF804FB00BF000401405F
:102DA000340B0020AFF30080AFF30080AFF300805E
:102DB00000B583B00D4B5A690C4B1B68134003F0F0
:102DC00002030193094B019A5A61019B03F002032C
:102DD000002B05D0064B5B68DB680548012198474E
:102DE00001F0B6FA03B05DF804FB00BF0004014037
:102DF000340B0020AFF30080AFF30080AFF300800E
:102E000000B583B00D4B5A690C4B1B68134003F09F
:102E100004030193094B019A5A61019B03F00403D7
:102E2000002B05D0064B5B685B690548022198477B
:102E300001F08EFA03B05DF804FB00BF000401400E
:102E4000340B0020AFF30080AFF30080AFF30080BD
:102E500000B583B00D4B5A690C4B1B68134003F04F
:102E600008030193094B019A5A61019B03F008037F
:102E7000002B05D0064B5B68DB69054803219847AA
:102E800001F066FA03B05DF804FB00BF00040140E6
:102E9000340B0020AFF30080AFF30080AFF300806D
:102EA00000B583B00D4B5A690C4B1B68134003F0FF
:102EB00010030193094B019A5A61019B03F010031F
:102EC000002B05D0064B5B685B6A054804219847D8
:102ED00001F03EFA03B05DF804FB00BF00040140BE
:102EE000340B0020AFF30080AFF30080AFF300801D
:102EF00000B583B0234B5A69224B1B68134003F47F
:102F0000787301931F4B019A5A61019B03F02003D0
:102F1000002B05D01C4B5B68DB6A1B4805219847DA
:102F2000019B03F04003002B05D0174B5B685B6BE4
:102F3000154806219847019B03F08003002B05D01C
:102F4000114B5B68DB6B104807219847019B03F42A
:102F50008073002B05D00C4B5B685B6C0A48082122
:102F60009847019B03F40073002B05D0064B5B6868
:102F7000DB6C05480921984701F0EAF903B05DF8D8
:102F800004FB00BF00040140340B0020AFF30080BD
:102F900000B583B0284B5A69274B1B68134003F4D4
:102FA0007C430193244B019A5A61019B03F4806393
:102FB000002B05D0214B5B685B6D20480A219847A8
:102FC000019B03F40063002B05D01C4B5B68DB6D99
:102FD0001A480B219847019B03F48053002B05D01E
:102FE000164B5B685B6E15480C219847019B03F4F8
:102FF0000053002B05D0114B5B68DB6E0F480D2191
:103000009847019B03F48043002B05D00B4B5B6872
:103010005B6F0A480E219847019B03F40043002B85
:1030200005D0064B5B68DB6F04480F21984701F021
:103030008FF903B05DF804FB00040140340B00205D
:1030400000B583B00D4B5A690C4B1B68134003F459
:1030500080330193094B019A5A61019B03F4803339
:10306000002B06D0064B5B68D3F88430044810214F
:10307000984701F06DF903B05DF804FB00040140CE
:10308000340B0020AFF30080AFF30080AFF300807B
:1030900000B583B00D4B5A690C4B1B68134003F409
:1030A00000330193094B019A5A61019B03F40033E9
:1030B000002B06D0064B5B68D3F88C3004481121F6
:1030C000984701F045F903B05DF804FB00040140A6
:1030D000340B0020AFF30080AFF30080AFF300802B
:1030E00000B583B00D4B5A690C4B1B68134003F4B9
:1030F00080230193094B019A5A61019B03F48023B9
:10310000002B06D0064B5B68D3F89430044812219C
:10311000984701F01DF903B05DF804FB000401407D
:10312000340B0020AFF30080AFF30080AFF30080DA
:1031300000B583B00D4B5A690C4B1B68134003F468
:1031400000230193094B019A5A61019B03F4002368
:10315000002B06D0064B5B68D3F89C300448132143
:10316000984701F0F5F803B05DF804FB0004014056
:10317000340B0020AFF30080AFF30080AFF300808A
:1031800000B583B00D4B5A690C4B1B68134003F418
:1031900080130193094B019A5A61019B03F4801338
:1031A000002B06D0064B5B68D3F8A43004481421EA
:1031B000984701F0CDF803B05DF804FB000401402E
:1031C000340B0020AFF30080AFF30080AFF300803A
:1031D00000B583B0194B5A69184B1B681A40184B3D
:1031E00013400193154B019A5A61019B03F400139C
:1031F000002B06D0134B5B68D3F8AC301148152177
:103200009847019B03F48003002B06D00D4B5B68AD
:10321000D3F8B4300B4816219847019B03F00053B4
:10322000002B06D0074B5B68D3F8EC3005481D2116
:10323000984701F08DF803B05DF804FB00040140ED
:1032400000006020340B0020AFF30080AFF300805B
:1032500000B583B01E4B5A691D4B1B68134003F029
:10326000404301931A4B019A5A61019B03F080433A
:10327000002B06D0174B5B68D3F8F43015481E219D
:103280009847019B002B06DA124B5B68D3F8FC30A1
:1032900010481F2198470E4B5A6B0D4B1B6A134069
:1032A00003F0010301930A4B019A5A63019B03F057
:1032B0000103002B06D0074B5B68D3F804310548A7
:1032C0002021984701F044F803B05DF804FB00BFEB
:1032D00000040140340B0020AFF30080AFF3008006
:1032E00000B583B00D4B5A6B0C4B1B68134003F0B9
:1032F00002030193094B019A5A63019B03F00203F5
:10330000002B06D0064B5B68D3F80C310448212112
:10331000984701F01DF803B05DF804FB000401407C
:10332000340B0020AFF30080AFF30080AFF30080D8
:1033300082B001900091009B5A68019B5A60009BEB
:103340009A68019B9A60009BDA68019BDA60009B97
:103350001A69019B5A61009B5A69019B1A62009B82
:103360009A69019B5A62009B1A68019B1A6002B01D
:10337000704700BFAFF30080AFF30080AFF3008071
:1033800008B5FFF7E5FC08BDAFF30080AFF30080A0
:1033900082B00190019B01221A70019B00225A60A9
:1033A00002B07047AFF30080AFF30080AFF300804E
:1033B00082B020230193019B83F3118802B07047F0
:1033C00082B000230193019B83F3118802B0704700
:1033D00008B5FFF7EDFF08BDAFF30080AFF3008045
:1033E00008B5FFF7EDFF08BDAFF30080AFF3008035
:1033F00082B00190019B019A1A6002B0704700BF31
:1034000082B00190019B9B68002B14BF0023012315
:10341000DBB2184602B07047AFF30080AFF3008014
:1034200008B5FFF7D5FF08BDAFF30080AFF300800C
:1034300008B5FFF7D5FF08BDAFF30080AFF30080FC
:1034400000B583B001900198FFF7D2FF03B05DF89B
:1034500004FB00BFAFF30080AFF30080AFF3008048
:1034600000B583B0019000910198009901F0B0FA85
:1034700003B05DF804FB00BFAFF30080AFF3008042
:1034800000B585B0039002910192039B303318463A
:103490000299019A4FF0FF3300F022FD03461846CF
:1034A00005B05DF804FB00BFAFF30080AFF3008010
:1034B00000B585B0039002910192039B0C3318462E
:1034C0000299019A4FF0FF3300F012FC03461846B0
:1034D00005B05DF804FB00BFAFF30080AFF30080E0
:1034E00000B583B001900B468DF80330019B03F1CA
:1034F00030029DF80330104619464FF0FF3200F0BD
:1035000077FC0346184603B05DF804FBAFF3008078
:1035100000B583B00190019B0C3318464FF0FF318A
:1035200000F09EFB0346184603B05DF804FB00BFA5
:1035300000B585B003900B4601928DF80B30039BCC
:1035400003F130029DF80B3010461946019A00F045
:103550004FFC0346184605B05DF804FBAFF300804E
:1035600000B583B001900091019B0C33184600997F
:1035700000F076FB0346184603B05DF804FB00BF7D
:1035800000B585B00390029101920093039B303304
:1035900018460299019A009B00F0A2FC03461846C7
:1035A00005B05DF804FB00BFAFF30080AFF300800F
:1035B00000B585B00390029101920093039B0C33F8
:1035C00018460299019A009B00F092FB03461846A8
:1035D00005B05DF804FB00BFAFF30080AFF30080DF
:1035E00008B5FEF715FF08BDAFF30080AFF300800C
:1035F00000B587B0059004910392059B134A1A60A9
:10360000059B04331846FFF71BFF059B01221A7226
:10361000059B03F10C02059B54330599009110465C
:1036200019461022049B00F0C3FA059B03F13002F7
:10363000059B643305990091104619461022039B9F
:1036400000F0AEFB07B05DF804FB00BFB0680008F7
:1036500000B583B001900091FFF7E2FE0198009958
:10366000FEF7F6FE019B02221A72FFF7E1FE03B09D
:103670005DF804FBAFF30080AFF30080AFF3008090
:1036800000B583B001900B468DF80330019B0C33DD
:103690001846FFF7B5FE0346002B05D0019B043307
:1036A00018460421FFF7DCFE019B03F10C029DF894
:1036B00003301046194600F0A3FA0346002B05DA42
:1036C000019B043318468021FFF7CAFE03B05DF862
:1036D00004FB00BFAFF30080AFF30080AFF30080C6
:1036E00082B020230193019B83F3118802B07047BD
:1036F00082B000230193019B83F3118802B07047CD
:1037000008B5FFF7EDFF08BDAFF30080AFF3008011
:1037100008B5FFF7EDFF08BDAFF30080AFF3008001
:1037200008B5FFF7EDFF08BDAFF30080AFF30080F1
:1037300008B5FFF7EDFF08BDAFF30080AFF30080E1
:1037400000B583B00190019802F082F90346184653
:1037500003B05DF804FB00BFAFF30080AFF300805F
:1037600000B583B00190019801F012F803B05DF844
:1037700004FB00BFAFF30080AFF30080AFF3008025
:1037800000B583B00190019801F012F803B05DF824
:1037900004FB00BFAFF30080AFF30080AFF3008005
:1037A00000B583B00190019801F072F803B05DF8A4
:1037B00004FB00BFAFF30080AFF30080AFF30080E5
:1037C00008B5FEF7DDFA08BDAFF30080AFF3008067
:1037D00000B583B00190019B01221A70019B002269
:1037E0005A60019B00229A60019B0C331846FFF738
:1037F000B7FF03B05DF804FBAFF30080AFF30080C8
:1038000000B583B001900091FFF78AFF019B009AF9
:103810005A600198FEF7F4FA019B02221A70FFF732
:1038200087FF03B05DF804FBAFF30080AFF30080C7
:1038300000B583B00190FFF773FF0198FEF798FB86
:10384000FFF776FF03B05DF804FB00BFAFF3008025
:1038500000B583B00190FFF763FF0198FEF798FB76
:10386000FFF766FF03B05DF804FB00BFAFF3008015
:1038700000B585B00390029101920093FFF750FFCD
:10388000039B03221A7003980299019A009BFEF78A
:103890008FFB039B08331846FFF752FFFFF748FFE3
:1038A00005B05DF804FB00BFAFF30080AFF300800C
:1038B00000B585B0039002910192FFF731FF039BA1
:1038C00003221A7003980299019AFEF7B1FB039B39
:1038D00008331846FFF734FFFFF72AFF05B05DF8FD
:1038E00004FB00BFAFF30080AFF30080AFF30080B4
:1038F00000B585B0039002910192FFF711FF039B81
:1039000003221A7003980299019AFEF7D1FB039BD8
:1039100008331846FFF714FFFFF70AFF05B05DF8FC
:1039200004FB00BFAFF30080AFF30080AFF3008073
:1039300000B583B00190019B0C331846FFF720FFC0
:1039400003B05DF804FB00BFAFF30080AFF300806D
:1039500000B583B00190019B0C331846FFF720FFA0
:1039600003B05DF804FB00BFAFF30080AFF300804D
:1039700082B0019000911149009BDBB21B01DAB2C9
:10398000019B0B4403F540731A700C4B019A5209CA
:10399000019901F01F01012000FA01F1603243F8A2
:1039A0002210064B019A5209019901F01F010120D2
:1039B00000FA01F143F8221002B0704700E100E084
:1039C000134B134A126842F480721A60114B1B6A3F
:1039D00003F44073B3F5007F06D00E4B4FF48032F2
:1039E0001A620C4B00221A620A4B1B6A03F4004352
:1039F000002B0BD1074B074A126A42F400721A627D
:103A0000044B044A126A42F400421A62704700BF33
:103A10000070004000100240AFF30080AFF3008060
:103A200008B5194B9B6A184B4FF0FF329A62164B40
:103A300000229A62144B1B69134B4FF0FF321A613C
:103A4000114B00221A61104BDB680F4B4FF0FF3215
:103A5000DA600D4B0022DA600B4B0B4AD26942F060
:103A60008052DA61FFF7ACFFFFF73AF8064B064ADF
:103A7000926942F001029A61044B044A126842F0D2
:103A800020021A6008BD00BF001002400000014083
:103A900082B020230193019B83F3118802B0704709
:103AA00082B000230193019B83F3118802B0704719
:103AB00082B00190019B019A1A60019B019A5A60A1
:103AC00002B07047AFF30080AFF30080AFF3008027
:103AD00008B5FFF7DDFF08BDAFF30080AFF300804E
:103AE00008B5FFF7DDFF08BDAFF30080AFF300803E
:103AF00000B583B001900198FFF7DAFF03B05DF8DD
:103B000004FB00BFAFF30080AFF30080AFF3008091
:103B100082B00190019B9B68002B14BF00230123FE
:103B2000DBB2184602B07047AFF30080AFF30080FD
:103B300082B00190019B5A69019B9B699A4205D111
:103B4000019B9B68002B01D0012300E0002303F0C0
:103B50000103DBB2184602B0704700BFAFF300802C
:103B600082B00190019B5A69019B9B699A4205D1E1
:103B7000019B9B68002B01D0012300E0002303F090
:103B80000103DBB2184602B0704700BFAFF30080FC
:103B900082B00190019B9B68002B14BF002301237E
:103BA000DBB2184602B07047AFF30080AFF300807D
:103BB00000B585B00390029101920093039B1846D3
:103BC000FFF796FF039B00229A60039B029ADA603C
:103BD000039B029A9A61039B029A5A61029A019B83
:103BE0001A44039B1A61039B009ADA61039B069AAD
:103BF0001A6205B05DF804FBAFF30080AFF30080FC
:103C000000B583B001900B468DF803300198FFF7A3
:103C10008FFF0346002B02D06FF003031CE0019BD3
:103C20009B685A1C019B9A60019B5B69591C019A15
:103C300051619DF803201A70019B5A69019B1B6911
:103C40009A4203D3019BDA68019B5A61019B184693
:103C5000002101F04DFF0023184603B05DF804FB7E
:103C600000B585B001900091FFF732FF019BDB6941
:103C7000002B11D0019BDB69019898470CE0019B58
:103C80001846009901F014FF0390039B002B03DA00
:103C9000FFF726FF039B20E00198FFF739FF03465B
:103CA000002BECD1019B9B685A1E019B9A60019BE3
:103CB0009B69591C019A91611B788DF80B30019B0F
:103CC0009A69019B1B699A4203D3019BDA68019BA5
:103CD0009A61FFF705FF9DF80B30184605B05DF8B7
:103CE00004FB00BFAFF30080AFF30080AFF30080B0
:103CF00000B587B00390029101920093039BDB69AA
:103D0000049300230593FFF7E3FE049B002B0FD0E1
:103D1000049B039898470BE0039B1846009901F019
:103D2000C7FE0346002B03D0FFF7DAFE059B2EE00B
:103D30000398FFF7EDFE0346002BEDD1039B9B6834
:103D40005A1E039B9A60029B5A1C0292039A926924
:103D5000501C0399886112781A70039B9A69039B1F
:103D60001B699A4203D3039BDA68039B9A61FFF7AE
:103D7000B7FE059B01330593019B013B0193019B1A
:103D8000002B01D1059B02E0FFF7A2FEBDE718461C
:103D900007B05DF804FB00BFAFF30080AFF3008015
:103DA00000B585B00390029101920093039B1846E1
:103DB000FFF79EFE039B019A9A60039B029ADA60CA
:103DC000039B029A9A61039B029A5A61029A019B91
:103DD0001A44039B1A61039B009ADA61039B069ABB
:103DE0001A6205B05DF804FBAFF30080AFF300800A
:103DF00000B587B003900B4601928DF80B30FFF7AA
:103E000067FE0CE0039B1846019901F051FE0590F6
:103E1000059B002B03DAFFF763FE059B27E0039861
:103E2000FFF7B6FE0346002BECD1039B9B685A1E9E
:103E3000039B9A60039B5B69591C039A51619DF82F
:103E40000B201A70039B5A69039B1B699A4203D388
:103E5000039BDA68039B5A61039BDB69002B03D049
:103E6000039BDB6903989847FFF73AFE0023184647
:103E700007B05DF804FB00BFAFF30080AFF3008034
:103E800000B585B001900198FFF76AFE0346002B4C
:103E900002D06FF002031DE0019B9B685A1C019B3E
:103EA0009A60019B9B69591C019A91611B788DF85E
:103EB0000F30019B9A69019B1B699A4203D3019BB6
:103EC000DA68019B9A61019B1846002101F010FEFF
:103ED0009DF80F30184605B05DF804FBAFF3008085
:103EE00000B587B00390029101920093039BDB69B8
:103EF000049300230593FFF7EBFD0BE0039B1846AB
:103F0000009901F0D5FD0346002B03D0FFF7E8FD33
:103F1000059B34E00398FFF73BFE0346002BEDD1F1
:103F2000039B9B685A1E039B9A60039B5B69591C09
:103F3000039A5161029A511C029112781A70039BE4
:103F40005A69039B1B699A4203D3039BDA68039B5C
:103F50005A61049B002B02D0049B03989847FFF7FB
:103F6000BFFD059B01330593019B013B0193019B21
:103F7000002B01D1059B02E0FFF7AAFDCAE7184616
:103F800007B05DF804FB00BFAFF30080AFF3008023
:103F900082B020230193019B83F3118802B0704704
:103FA00082B000230193019B83F3118802B0704714
:103FB00008B5FFF7EDFF08BDAFF30080AFF3008059
:103FC00008B5FFF7EDFF08BDAFF30080AFF3008049
:103FD000064B073323F007031A46054B1A60054BBF
:103FE00023F007031A46044B1A607047581F00203D
:103FF000A80A002000A00020AC0A0020AFF3008037
:1040000000B585B00190FFF7D3FF019800F008F8E4
:104010000390FFF7D5FF039B184605B05DF804FB3E
:1040200084B00190019B073323F0070301930C4BED
:104030001B681A460B4B1B68D31A1A46019B9A42FF
:1040400001D2002309E0074B1B680393054B1A6854
:10405000019B1A44034B1A60039B184604B0704737
:10406000AC0A0020A80A0020AFF30080AFF3008064
:1040700008B5064B064A1A60044B00229A60034BAF
:104080000022DA60034800F083FB08BDB00A00207C
:1040900001400008C00A0020AFF30080AFF30080A9
:1040A00000B587B001900091019B002B01D1374BE7
:1040B0000193009B073323F007030093019B083310
:1040C0000593019B1033184600F072FB36E0059B08
:1040D0001B680493049B5A68009B9A422CD3049B50
:1040E0005A68009B08339A4204D2049B1A68059BC5
:1040F0001A6016E0009B0833049A13440393049B50
:104100001A68039B1A60049B5A68009BD31AA3F198
:104110000802039B5A60059B039A1A60049B009A4D
:104120005A60049B019A1A60019B1033184600F0F4
:10413000AFFB049B083324E0049B0593059B1B689D
:10414000002BC4D1019B1033184600F0A1FB019B4A
:104150001B68002B14D0019B1B68009A0832104684
:1041600098470490049B002B0AD0049B019A1A6084
:10417000049B009A5A60049B08330493049B00E05C
:104180000023184607B05DF804FB00BFB00A00200A
:1041900000B587B00190019B083B0493049B1B680A
:1041A0000393039B08330593039B1033184600F0D9
:1041B000FFFA039B03F10802059B9A4203D0049A7D
:1041C000059B9A423DD9059B1B68002B04D0059B9B
:1041D0001A68049B9A4234D9059B1A68049B1A609A
:1041E000059B049A1A60049B5B680833049A1A447E
:1041F000049B1B689A420ED1049B5A68049B1B685F
:104200005B68134403F10802049B5A60049B1B681B
:104210001A68049B1A60059B5B680833059A1A4468
:10422000049B9A4211D1059B5A68049B5B68134416
:1042300003F10802059B5A60049B1A68059B1A60EB
:1042400003E0059B1B680593B3E7039B10331846F7
:1042500000F01EFB07B05DF804FB00BFAFF3008069
:1042600082B020230193019B83F3118802B0704731
:1042700082B000230193019B83F3118802B0704741
:1042800008B5FFF7EDFF08BDAFF30080AFF3008086
:1042900008B5FFF7EDFF08BDAFF30080AFF3008076
:1042A00084B001900091009B0393019B1A68039BCB
:1042B0001A60019B039A1A6004B07047AFF3008044
:1042C00000B583B001900091FFF7DAFF01980099E3
:1042D000FFF7E6FFFFF7DCFF03B05DF804FB00BF6C
:1042E00082B020230193019B83F3118802B07047B1
:1042F00082B000230193019B83F3118802B07047C1
:1043000008B5FFF7EDFF08BDAFF30080AFF3008005
:1043100008B5FFF7EDFF08BDAFF30080AFF30080F5
:1043200010B582B0EFF309831C4623460193019B2D
:1043300020330193019B0093009B83F30988FFF7CF
:10434000E7FF02B010BD00BFAFF30080AFF3008005
:1043500010B582B0FFF7D4FF134B5B6803F4006322
:10436000002B1DD0EFF309831C4623460193019BCC
:10437000203B0193019B4FF08072DA61019B009317
:10438000009B83F3098801F013F90346002B03D047
:10439000019B064A9A6105E0019B054A9A6101E08A
:1043A000FFF7B6FF02B010BD00ED00E0010300080A
:1043B00004030008AFF30080AFF30080AFF3008088
:1043C000704700BFAFF30080AFF30080AFF3008011
:1043D00008B5FFF7F5FFFFF723FB0748FDF728FBBC
:1043E000FEF7CEFFFFF7FCF8FFF7EAF9FEF760F8FB
:1043F00000F026F808BD00BFE0690008AFF30080B8
:1044000082B001904FF08043019A5A634FF080438D
:1044100000221A614FF080430222DA6002B0704736
:104420004FF080430022DA60704700BFAFF3008096
:1044300082B001904FF08043019A5A6302B07047F6
:1044400008B5FEF74DFC08BDAFF30080AFF3008068
:1044500000B583B001900198FFF7D2FF03B05DF87B
:1044600004FB00BFAFF30080AFF30080AFF3008028
:1044700008B5FFF7D5FF08BDAFF30080AFF30080AC
:1044800000B583B001900198FFF7D2FF03B05DF84B
:1044900004FB00BFAFF30080AFF30080AFF30080F8
:1044A00082B00190019B4FF0FF321A60019B002205
:1044B0005A60019B00229A60019B0022DA600199F8
:1044C0004FF000024FF00003C1E9042302B070472F
:1044D00000B583B0019001F023FB0246019B9A6076
:1044E00003B05DF804FB00BFAFF30080AFF30080C2
:1044F00000B583B0019001F013FB0246044B5B6FE3
:10450000019811461A4601F013FB03B05DF804FB55
:1045100058090020AFF30080AFF30080AFF30080B4
:1045200082B020230193019B83F3118802B070476E
:1045300082B000230193019B83F3118802B070477E
:1045400008B5FFF7EDFF08BDAFF30080AFF30080C3
:1045500008B5FFF7EDFF08BDAFF30080AFF30080B3
:1045600000B585B00190FFF7EBFF019B93F8223077
:10457000013BDAB2019B83F82220019B93F82230A1
:104580008DF80F30FFF7E4FF9DF80F30002B2CD192
:10459000019B93F820300F2B27D1019B93F82130FA
:1045A00003F00303012B02D0022B0ED01DE0019B70
:1045B0005B69019A12691A61019B1B69019A526930
:1045C0005A610198FFF7E4FD0FE0019B5B69019AD6
:1045D00012691A61019B1B69019A52695A61019B18
:1045E0001B6C18460199FFF76BFE05B05DF804FBE4
:1045F00000B589B00590049103920293059804993F
:10460000FFF74EFD0790079B002B01D1002315E01B
:10461000FFF796FF0A9B009307980499039A029B61
:1046200001F04EF90690069B012283F8212006989E
:10463000002100F075FFFFF78BFF069B184609B0BD
:104640005DF804FBAFF30080AFF30080AFF30080B0
:1046500082B020230193019B83F3118802B070473D
:1046600082B000230193019B83F3118802B070474D
:1046700082B00190019B019A1A60019B019A5A60D5
:1046800002B07047AFF30080AFF30080AFF300805B
:1046900082B00190019B1A68019B9A420CBF0023D3
:1046A0000123DBB2184602B0704700BFAFF30080B1
:1046B00084B001900091009B0393039B1B680393BC
:1046C000039A009B9A4205D0039B9A68019B9B68C2
:1046D0009A42F2D2019B039A1A60039B5A68019B8B
:1046E0005A60019B5B68019A1A60039B019A5A60A9
:1046F00004B07047AFF30080AFF30080AFF30080E9
:1047000084B00190019B1B680393039B1A68019B73
:104710001A60019B1B68019A5A60039B184604B0FB
:10472000704700BFAFF30080AFF30080AFF30080AD
:1047300082B00190019B5B68019A12681A60019B2C
:104740001B68019A52685A60019B184602B0704774
:1047500008B5FFF77DFF08BDAFF30080AFF3008021
:1047600008B5FFF77DFF08BDAFF30080AFF3008011
:1047700000B583B00190019B1846FFF789FF0346FF
:10478000184603B05DF804FBAFF30080AFF3008080
:1047900000B583B00190019B1846FFF769FF019BAC
:1047A00000229A6003B05DF804FB00BFAFF3008005
:1047B00000B583B00190FFF7CBFF019800F008F837
:1047C000FFF7CEFF03B05DF804FB00BFAFF300803E
:1047D00000B585B001902D4B9B690293019B9B68AE
:1047E000002B45D0019B9B6803932FE0029B9A68A6
:1047F000039B9A60039B93F82030062B04D0072B71
:1048000011D0002B1AD027E00398FFF791FF024642
:10481000039B5B6A10461946FFF74AFF039B5B6ADE
:104820009B68039312E00398FFF782FF0246039B05
:104830005B6A10461946FFF73BFF0DE00398FFF750
:1048400077FF0346184600F093FD05E0039B9A6846
:10485000029B9B689A42C9D3019B02981946FFF7B5
:1048600027FF029B019A5A62062000F0A9FD09E089
:10487000019B029A9A60029B9A6B019BDA60029BF1
:10488000019A9A6305B05DF804FB00BF5809002047
:1048900000B587B00190264B9B690393FFF758FF43
:1048A000019BDA68039B9A630198FFF761FF034657
:1048B000002B34D0039BDB6B0493039B9B6B059312
:1048C00012E00598FFF754FF0346002B09D0059B23
:1048D0001B689A68049B9A4203D9059B1B689B68D6
:1048E0000493059BDB680593059B002BE9D1039B93
:1048F000049A9A60019B1846FFF702FF0290019B01
:10490000029A9A60029B9A6B019BDA60029B019A61
:104910009A63029800F02CFD00F03AFE02E0019B41
:1049200000229A60FFF71CFF07B05DF804FB00BF90
:1049300058090020AFF30080AFF30080AFF3008090
:1049400082B020230193019B83F3118802B070474A
:1049500082B000230193019B83F3118802B070475A
:1049600008B5FFF7EDFF08BDAFF30080AFF300809F
:1049700008B5FFF7EDFF08BDAFF30080AFF300808F
:1049800000B585B00390029101920093FFF7E8FF14
:10499000039B1A68029B1A60039B029A1A60094BD8
:1049A0009A69029B5A60029B019A9A60029B0022BC
:1049B000DA60029B009A1A61FFF7DAFF05B05DF832
:1049C00004FB00BF58090020AFF30080AFF3008064
:1049D00000B585B001900091019B1B6803931AE01C
:1049E000039BDA68009B1A43039BDA60009B002B51
:1049F00006D0039BDA68039B1B691340002B07D08A
:104A0000039B5A68039B9B681046194600F010F8F8
:104A1000039B1B680393039A019B9A42E0D105B064
:104A20005DF804FBAFF30080AFF30080AFF30080CC
:104A300000B583B001900091019B5A6B009B1A4313
:104A4000019B5A63019B93F820300A2B06D1019BEE
:104A50005A6B019B5B6A1340002B0DD1019B93F8AD
:104A600020300B2B0ED1019B5A6B019B5B6A1A40C5
:104A7000019B5B6A9A4205D1019B00225A62019810
:104A800000F076FC03B05DF804FB00BFAFF30080DC
:104A900000B585B0019000910023039319E0009ABE
:104AA000039B22FA03F303F00103002B0ED0012233
:104AB000039B02FA03F3DB43009A13400093039B2A
:104AC0009B00019A13441B6803989847039B01338A
:104AD0000393009B002BE2D105B05DF804FB00BFFF
:104AE00000B585B00190154B9B690293FFF738FF25
:104AF000029B5A6B019B13400393039B002B0AD12B
:104B0000029B019A5A620A2000F05AFC029B5A6BDF
:104B1000019B13400393039B5B42039A134003934F
:104B2000029B5A6B039BDB431A40029B5A63FFF7BD
:104B30001FFF039B184605B05DF804FB58090020D1
:104B4000704700BFAFF30080AFF30080AFF3008089
:104B5000704700BFAFF30080AFF30080AFF3008079
:104B6000FEE700BFAFF30080AFF30080AFF300803B
:104B700084B0164B0393039B1B680293039B5B68F3
:104B8000019309E0029B1A68019B1A60019B0433A0
:104B90000193029B04330293039B9A68019B9A4200
:104BA000F0D805E0019B00221A60019B04330193B9
:104BB000039BDA68019B9A42F4D8039B103303935A
:104BC000039A034B9A42D6D304B07047106800088A
:104BD00090680008AFF30080AFF30080AFF300806F
:104BE000FEE700BFAFF30080AFF30080AFF30080BB
:104BF00084B00190019B03F0070303930A4BDB6829
:104C00000293029A4FF6FF0313400293039B1A028A
:104C1000029B134343F0BF6343F400330293024B00
:104C2000029ADA6004B0704700ED00E0AFF3008054
:104C300082B0034600918DF807309DF90730002BB4
:104C40000CDA0C499DF8073003F00F03043B009A7F
:104C5000D2B21201D2B20B441A7609E006499DF98C
:104C60000730009AD2B21201D2B20B4483F800236B
:104C700002B0704700ED00E000E100E0AFF300801B
:104C800008B50E4B00229A600320FFF7B1FF0C4BD2
:104C90000B4AD26842F08072DA600A4B094A126805
:104CA00042F001021A606FF004000121FFF7C0FF1B
:104CB0006FF001000221FFF7BBFF08BD00ED00E02F
:104CC000F0ED00E0001000E0AFF30080AFF30080F3
:104CD00082B020230193019B83F3118802B07047B7
:104CE00082B000230193019B83F3118802B07047C7
:104CF00008B5FFF7EDFF08BDAFF30080AFF300800C
:104D000008B5FFF7EDFF08BDAFF30080AFF30080FB
:104D100072B67047AFF30080AFF30080AFF300804E
:104D200082B000230193019B83F3118862B602B025
:104D3000704700BFAFF30080AFF30080AFF3008097
:104D4000704700BFAFF30080AFF30080AFF3008087
:104D50004FF080435B6A1846704700BFAFF3008096
:104D600008B5FFF785FB08BDAFF30080AFF3008007
:104D700000B583B001900198FFF782FB03B05DF8A6
:104D800004FB00BFAFF30080AFF30080AFF30080FF
:104D900008B5FFF7DDFF0346184608BDAFF30080F6
:104DA00008B5FFF7BDFF08BDAFF30080AFF300808B
:104DB00008B5FFF79DFF08BDAFF30080AFF300809B
:104DC00008B5FFF79DFF08BDAFF30080AFF300808B
:104DD00008B5FFF7DDFF0346184608BDAFF30080B6
:104DE00000B585B02A4BDB690393FFF7F1FF029012
:104DF0002AE0274B9A6A039B9B681A44244B9A62C9
:104E0000039B1B68234A5A60039B1A68204BDA6194
:104E1000039BDB680093039B0022DA601C4BDA697A
:104E20001C4B9A4201D1FFF79BFFFFF7C9FF039B81
:104E30001A69009B10469847FFF7BAFF144BDB69CD
:104E40000393FFF7C5FF0290039B9A68104B9B6A80
:104E50000299CB1A9A42CCD90D4BDA690D4B9A4282
:104E600012D00B4B9A6A039B9B681A44029BD31A7D
:104E70000193019B012B01D802230193029A019B0C
:104E800013441846FFF774FF05B05DF804FB00BF3C
:104E90005809002074090020AFF30080AFF30080B0
:104EA00082B00190024B9B69019A9A6102B07047EF
:104EB00058090020AFF30080AFF30080AFF300800B
:104EC00082B001900091019B009A9A6102B07047F4
:104ED00000B583B00190FFF733FFFCE7AFF300802C
:104EE00000B585B0FFF7CCFE00F032FA00F098F87C
:104EF00000F056FEFFF76CF8FFF7BAF812484021B1
:104F000000F096FC0246114B9A61104B9B690122FE
:104F100083F820200D4B9B690D4ADA61FFF740FFB3
:104F20000C48FFF7BDFF002300930B48D821012256
:104F30000A4B00F0EDFC039003980949FFF7C0FF0E
:104F400005B05DF804FB00BF880900205809002067
:104F50000004002090680008D0090020D14E00080D
:104F6000F0670008AFF30080AFF30080AFF300807C
:104F700000B583B00190FFF7CBFE024B019ADA62D5
:104F8000FEE700BF58090020AFF30080AFF30080B8
:104F900008B5FFF725FF08BDAFF30080AFF3008031
:104FA0004FF080435B6A1846704700BFAFF3008044
:104FB00000B583B001900198FFF74AFA03B05DF89D
:104FC00004FB00BFAFF30080AFF30080AFF30080BD
:104FD00008B5FFF74DFA08BDAFF30080AFF30080CE
:104FE00000B583B001900198FFF74AFA03B05DF86D
:104FF00004FB00BFAFF30080AFF30080AFF300808D
:1050000008B5FFF7CDFF0346184608BDAFF3008093
:1050100008B5FFF7F5FF0346184608BDAFF300805B
:10502000064B074ADA61054B054A1A62034B4FF0FB
:10503000FF325A62014B00229A62704758090020E1
:1050400074090020AFF30080AFF30080AFF300805D
:1050500000B589B00390029101920093039B009ADE
:105060001A61039B019ADA60FFF7D2FF0590029B59
:10507000012B01D802230293314BDA69314B9A425A
:1050800019D12F4B059A9A622D4B039ADA612C4B5A
:10509000039A1A62039B2B4A1A60039B294A5A609F
:1050A000039B029A9A60264B9A6A029B1344184605
:1050B000FFF77EFF40E0059A029B1A44204B9B6A53
:1050C000D31A06931E4BDB699A68069B9A4206D94F
:1050D0001B4B9A6A069B13441846FFF781FF184B37
:1050E000DB69079307E0079B9B68069AD31A069330
:1050F000079B1B680793079B9A68069B9A42F2D30B
:10510000039B079A1A60039B1B685A68039B5A60AB
:10511000039B5B68039A1A60079B039A5A60039B80
:10512000069A9A60079B9A68069BD21A079B9A6018
:10513000034B4FF0FF325A6209B05DF804FB00BF29
:105140005809002074090020AFF30080AFF30080FD
:1051500000B585B00190304BDA69019B9A421BD0B3
:10516000019B5B68019A12681A60019B1B68019A97
:1051700052685A60019B0022DA60019B1A68274B33
:105180009A4246D0019B1B68019A12689168019A65
:1051900092680A449A603CE0019B1A681E4BDA61EF
:1051A0001D4BDB691D4A5A60019B0022DA601A4BD5
:1051B000DA691A4B9A4202D1FFF70AFF29E0164B2F
:1051C000DB69154AD2699168019A92680A449A602B
:1051D000FFF71EFF0246104B9B6AD31A02930E4B39
:1051E000DB699A68029B9A4213D90B4BDB699A6878
:1051F000029BD31A0393039B012B01D80223039331
:10520000054B9A6A029B1A44039B13441846FFF706
:10521000E7FE05B05DF804FB580900207409002082
:1052200082B020230193019B83F3118802B0704761
:1052300082B000230193019B83F3118802B0704771
:1052400008B5FFF7EDFF08BDAFF30080AFF30080B6
:1052500008B5FFF7EDFF08BDAFF30080AFF30080A6
:1052600082B00190019B019A1A60019B019A5A60D9
:1052700002B07047AFF30080AFF30080AFF300805F
:1052800084B00190019B1B680393039B1A68019BE8
:105290001A60019B1B68019A5A60039B184604B070
:1052A000704700BFAFF30080AFF30080AFF3008022
:1052B00082B00190019B5B68019A12681A60019BA1
:1052C0001B68019A52685A60019B184602B07047E9
:1052D000064B1B689A68054B9B699B689A4294BF72
:1052E00000230123DBB21846704700BF5809002095
:1052F00008B5FFF7A5FF08BDAFF30080AFF300804E
:1053000008B5FFF7A5FF08BDAFF30080AFF300803D
:1053100082B00190019BDB68002B0CBF00230123AE
:10532000DBB2184602B07047AFF30080AFF30080E5
:1053300082B00190019B9B685A1C019B9A6002B04D
:10534000704700BFAFF30080AFF30080AFF3008081
:1053500008B50648FFF784FF044B00229A60034B10
:10536000024A1A61014B014A5A6108BD58090020DE
:1053700084B00190019B002283F820200E4B039300
:10538000039B1B680393039B9A68019B9B689A424B
:10539000F6D2019B039A1A60039B5A68019B5A60DC
:1053A000019B5B68019A1A60039B019A5A60019BFA
:1053B000184604B0704700BF58090020AFF30080C2
:1053C00010B584B003468DF80730154B9B690393E5
:1053D000039B9DF8072083F820201148FFF750FF1A
:1053E00002460F4B9A610E4B9B69012283F82020E5
:1053F000EFF309831C4623460293029BA3F1240288
:10540000039BDB699A4202D20648FFF7B1FD044BC9
:105410009B6918460399FAF763FF04B010BD00BFFB
:1054200058090020F8670008AFF30080AFF3008050
:1054300000B585B00190019B0393FFF759FF039BD3
:1054400093F82030072B23D801A252F823F000BF95
:1054500071540008915400089154000877540008D2
:105460008B54000881540008915400088B540008A4
:10547000FFF746FF15E0039B5B6A00221A6007E016
:10548000039B5B6A1846FFF753FF0398FFF710FF73
:10549000039B4FF0FF325A620398FFF769FFFFF753
:1054A0002FFF05B05DF804FBAFF30080AFF3008081
:1054B00000B589B0034600918DF80730009BB3F129
:1054C000FF3F18D0124B9B6903AA10460099114A5E
:1054D000FFF7BEFD9DF807301846FFF771FF03ABDD
:1054E0001846FFF715FF0346002B09D003AB1846FB
:1054F000FFF72EFE04E09DF807301846FFF760FF27
:10550000034B9B695B6A184609B05DF804FB00BF5A
:105510005809002031540008AFF30080AFF3008039
:1055200010B584B001900091019B009A5A62019BD2
:105530009A68154B9B699B689A4203D80198FFF7BC
:1055400017FF1FE0104B9B691846FFF711FF0390F0
:105550000D4B019A9A61019B012283F82020EFF301
:1055600009831C4623460293029BA3F12402039B5A
:10557000DB699A4202D20548FFF7FAFC01980399C9
:10558000FAF7AEFE04B010BD58090020F867000815
:1055900008B5FFF79DFE0346002B01D000F020F870
:1055A00008BD00BFAFF30080AFF30080AFF3008011
:1055B00082B0094B1B689B680193074B9B699B68F2
:1055C0000093019A009B9A4294BF00230123DBB20F
:1055D000184602B0704700BF58090020AFF30080A2
:1055E00010B584B0204B9B6902931F48FFF748FE1B
:1055F00002461D4B9A611C4B9B69012283F82020B7
:10560000029B002283F82020174B0393039B1B6807
:105610000393039B9A68029B9B689A42F6D8029B6D
:10562000039A1A60039B5A68029B5A60029B5B684C
:10563000029A1A60039B029A5A60EFF309831C4690
:1056400023460193019BA3F12402029BDB699A424A
:1056500002D20648FFF78CFC034B9B69184602995F
:10566000FAF73EFE04B010BD58090020F8670008A4
:1056700008B5FFF7B5FF08BDAFF30080AFF30080BA
:1056800082B020230193019B83F3118802B07047FD
:1056900082B000230193019B83F3118802B070470D
:1056A00082B00190019B019A1A6002B0704700BF5E
:1056B00082B00190019B1A68019B9A420CBF0023A3
:1056C0000123DBB2184602B0704700BFAFF3008081
:1056D00082B00190019B019A1A60019B019A5A6065
:1056E00002B07047AFF30080AFF30080AFF30080EB
:1056F00082B00190019B1A68019B9A420CBF002363
:105700000123DBB2184602B0704700BFAFF3008040
:1057100082B001900091009B1A68019B1A60009B67
:10572000019A1A6002B07047AFF30080AFF30080B7
:1057300084B00190019B1B680393039B1A68019B33
:105740001A60039B184604B0704700BFAFF3008097
:1057500082B001900091019B009A1A60009B5A68E8
:10576000019B5A60019B5B68019A1A60009B019A39
:105770005A6002B0704700BFAFF30080AFF3008003
:1057800084B00190019B1B680393039B1A68019BE3
:105790001A60019B1B68019A5A60039B184604B06B
:1057A000704700BFAFF30080AFF30080AFF300801D
:1057B00008B5FFF765FF08BDAFF30080AFF30080C9
:1057C00008B5FFF765FF08BDAFF30080AFF30080B9
:1057D000014B9B691846704758090020AFF30080C1
:1057E00000B583B0019008200199FFF761FE03B076
:1057F0005DF804FBAFF30080AFF30080AFF30080EF
:1058000000B585B0019000910198FFF7B9FF0390B2
:10581000039B009A5A620398FFF7AAFD05B05DF852
:1058200004FB00BFAFF30080AFF30080AFF3008054
:1058300000B583B001900091019B009A9A60019B92
:10584000022283F82020019B002283F82120019B63
:10585000009ADA63019B00229A63019B00225A633B
:10586000019B012283F82220019B00229A61019B67
:10587000104A1A610F4B5A69019B5A61019B5B697F
:10588000019A1A610B4B019A5A61019B2833184601
:10589000FFF706FF019B2C331846FFF719FF019B0A
:1058A00003F14402019BDA61019B184603B05DF8E5
:1058B00004FB00BF58090020AFF30080AFF3008065
:1058C00000B587B00390029101920093039B05936A
:1058D000029B243B039A1A44059BDA60059BDB6814
:1058E000009A1A60059BDB68089A5A60059BDB6882
:1058F000054A1A6205980199FFF79AFF0346184670
:1059000007B05DF804FB00BFF1020008AFF30080B0
:1059100000B589B00590049103920293FFF748FF08
:105920000A9B009305980499039A029BFFF7C8FF0E
:10593000079007980021FFF7F3FDFFF741FF079B52
:10594000184609B05DF804FBAFF30080AFF30080A8
:1059500000B583B00190FFF72BFF0198FFF740FFE0
:10596000FFF72EFF03B05DF804FB00BFAFF300802C
:1059700000B583B00190FFF71BFF019800F008F815
:1059800003B05DF804FB00BFAFF30080AFF300800D
:1059900000B585B00190174B9B690393039B019A57
:1059A0005A6208E0039B28331846FFF7C1FE0346FE
:1059B0001846FFF7DDFC039B28331846FFF778FEF7
:1059C0000346002BEED1039B93F8213003F0030331
:1059D000002B09D1039B5B69039A12691A61039B2F
:1059E0001B69039A52695A610F20FFF7E9FC05B061
:1059F0005DF804FB58090020AFF30080AFF300808E
:105A000000B585B00190FFF7D3FE019B93F82030DD
:105A10000F2B0AD00B4B9A69019B2833104619466D
:105A2000FFF776FE0920FFF7CBFC019B5B6A03932F
:105A3000FFF7C6FE0198FEF793FD039B184605B0DD
:105A40005DF804FB58090020AFF30080AFF300803D
:105A500000B585B00190FFF7BBFE0390019B039A50
:105A60001A60039B019A5A620320FFF7A9FCFFF713
:105A7000AFFE03465B6A184605B05DF804FB00BF45
:105A800000B585B001900091019B1B68002B0BD0E5
:105A9000019B1B680393019B00221A60039B009AE1
:105AA0005A620398FFF764FC05B05DF804FB00BF81
:105AB00000B583B001900091009B002B02D14FF004
:105AC000FF330AE0074B9B6918460199FFF740FE38
:105AD00004200099FFF7ECFC0346184603B05DF87C
